:020000040800F2
:1000000000400020D9040008B5040008B704000827
:1000100000000000000000000000000000000000E0
:10002000000000000000000000000000B90400080B
:100030000000000000000000BB040008BD04000830
:1000400029050008290500082905000829050008D8
:1000500029050008290500082905000829050008C8
:1000600029050008290500082905000829050008B8
:1000700029050008290500082905000829050008A8
:100080002905000829050008290500082905000898
:100090002905000829050008290500082905000888
:1000A0002905000829050008290500082905000878
:1000B000290500082905000829050008C5040008CD
:1000C00010B5064C2378002B07D1054B002B02D02E
:1000D000044800E000BF0123237010BD440100204C
:1000E00000000000E0340008044B10B5002B03D0E2
:1000F0000349044800E000BF10BDC04600000000F6
:1001000048010020E034000802B471464908490063
:10011000095C49008E4402BC7047C04603B4714676
:10012000490840004900095A49008E4403BC704701
:10013000002243088B4274D303098B425FD3030A26
:100140008B4244D3030B8B4228D3030C8B420DD339
:10015000FF22090212BA030C8B4202D312120902C7
:1001600065D0030B8B4219D300E0090AC30B8B4205
:1001700001D3CB03C01A5241830B8B4201D38B03B3
:10018000C01A5241430B8B4201D34B03C01A524158
:10019000030B8B4201D30B03C01A5241C30A8B429B
:1001A00001D3CB02C01A5241830A8B4201D38B0286
:1001B000C01A5241430A8B4201D34B02C01A52412A
:1001C000030A8B4201D30B02C01A5241CDD2C3099C
:1001D0008B4201D3CB01C01A524183098B4201D318
:1001E0008B01C01A524143098B4201D34B01C01A03
:1001F000524103098B4201D30B01C01A5241C3087B
:100200008B4201D3CB00C01A524183088B4201D3E9
:100210008B00C01A524143088B4201D34B00C01AD5
:100220005241411A00D20146524110467047FFE741
:1002300001B5002000F006F802BDC0460029F7D045
:1002400076E770477047C04630B5102599B0302228
:1002500000210CA803F017F92A000021684603F0DA
:1002600012F91C22002104A803F00DF90124222315
:100270000BA80B930E9413940F9501F0D9F9002855
:1002800001D072B6FEE70723029000930390043B6F
:1002900021006846019301F051FC002801D072B69C
:1002A000FEE7064B08900A9004A8049301F0D0FCE6
:1002B000002801D072B6FEE719B030BD2000020060
:1002C00070B58AB000F056F9FFF7BEFF1422002186
:1002D00005A803F0D8F88021474B09035A699020FC
:1002E0000A435A615A69C0050A4080210192019A65
:1002F0005A69C9030A435A615A6900240A40802195
:100300000292029A5A6989020A435A615A6902257D
:100310000A4080210392039A5A69C9020A435A612A
:100320005B6900220B400493ED21049B00F05AFA14
:10033000E02301261B02314805A905930795069481
:1003400000F08AF92E4805A907950596069400F055
:1003500083F99020ED2305A9C0050593069607941F
:10036000089400F079F9274805A9059606940794A2
:1003700000F072F9244B234805A9059307950694CC
:1003800000F06AF9C02390209B0005A9C0050593E1
:100390000795069400F060F980239020DB0005A902
:1003A000C00505930694079400F056F9174D184BB5
:1003B00028002B60174BAC606B60EE602C616C61A9
:1003C000AC61EC612C6200F013FA0100A04201D094
:1003D00072B6FEE7280000F061FA011E01D072B685
:1003E000FEE7280000F080FA002801D072B6FEE790
:1003F00002F07AFEFEE7C046001002400008004806
:100400000014004800040048FEFC000060010020C9
:10041000005400400B02000072B6FEE701210A4BB7
:1004200082B09A690A439A619A690A4080210092CF
:10043000009ADA6949050A43DA61DB690B400193E6
:10044000019B02B07047C0460010024010B5040086
:1004500088B01422002103A803F015F8124B22687B
:100460009A421FD18022114CD20263691048134373
:100470006361636903A913400193019BC0239B003F
:100480000393122304930F3B0693023B079300F060
:10049000E3F88022E36992031343E361E3691340C5
:1004A0000293029B08B010BD0054004000100240AF
:1004B00000040048FEE7FEE77047704710B500F003
:1004C00069F810BD10B5024800F0C2FA10BDC04670
:1004D00080060020704700000D488546FFF7FAFFB0
:1004E0000C480D490D4A002302E0D458C45004338F
:1004F000C4188C42F9D30A4A0A4C002301E0136065
:100500000432A242FBD302F0C7FFFFF7D9FEFEE799
:100510000040002000000020440100208C3500082D
:100520004401002090090020FEE7000070B505009E
:10053000FA200D4B80001978FFF7FAFD0B4C0100F3
:100540002068FFF7F5FD00F06DF804000120002C95
:1005500009D1032D07D802382200290000F02CF819
:100560002000034B1D6070BD04000020000000202F
:10057000080000201023064A10B5116803200B4321
:100580001360FFF7D3FFFFF749FF002010BDC046FF
:1005900000200240034A044B11681B785B1813606B
:1005A0007047C046B401002004000020014B1868C9
:1005B0007047C046B401002030B5FF2503242A004F
:1005C0000440E400A24089012940D243A140C3B2C3
:1005D00000280ADBC0240B4B80088000C018A40050
:1005E000035913400B43035130BD0F200340083B18
:1005F00005489B089B001B18D86902400A43DA6132
:10060000F2E7C04600E100E000ED00E0002805DB75
:100610001F2318401E3B8340014A13607047C046A9
:1006200000E100E08022431E5204012093420DD2DB
:10063000C021074A07485360036A09061B021B0AC8
:100640000B43036200200723906013607047C0468D
:1006500010E000E000ED00E05B4AF0B58218541EA7
:10066000A241002389B0043205920A681400DC40DC
:1006700001D109B0F0BD01242500A4469D4014001D
:100680002C4002942A4200D19CE003244A685F0077
:1006900001922240BC40E4430394541E64452FD889
:1006A0008668039C2640CC68BC4034436646846020
:1006B0004468AC432500019C240934409C402C43F1
:1006C0004460C568039C25408C68BC402C43C460D2
:1006D000022A17D107250F261D40AD00AE40B446B3
:1006E000DC08A40004190494246A26006446A64386
:1006F000B4460E696446AE402643049C266201E07F
:10070000032ADED1BA400468039D25402A430260D3
:10071000C022019C9202144254D001262B4A1D0093
:1007200094693443946192699C0832400792079A15
:10073000274AA400A418A268944603221540AD00DD
:100740000C32AA40674697439022D2059446002275
:1007500060450DD01F4A94463200604508D01E4EB9
:100760009218B04204D01D4E0132B04200D0059A1A
:10077000AA403A43A2601A4A029C9668029D019FD1
:10078000E4433543FF0201D4350025409560D66827
:10079000029D019F3543BF0201D435002540D5603D
:1007A0005668029D019F3543BF0301D435002540A3
:1007B00055601568029E019F2E43FF0301D425401A
:1007C0002E001660013350E700F0FFB70010024022
:1007D000000001400004004800080048000C0048E8
:1007E00000040140002A01D0816170478162FCE76A
:1007F00070B504000120002C3FD0250041352B7836
:10080000DAB2002B05D12300403320001A70FFF725
:100810001DFE242301212B702368E0681A68A66856
:100820008A431A601A4962680A401A619A6819492B
:100830000A409A60012821D18022120232439A6034
:100840005868154A02435A60DA6800200A40DA60A4
:10085000616922690A43A16909020A43DA60216ACF
:10086000E2690A431A60012219680A431A602023C8
:1008700060642B7020634234207070BD84221202A9
:1008800032439A600228DBD1802212015A60D7E7F6
:10089000FFFFFFF0FF7FFFFF00800002F0B50400C4
:1008A0004134227803000F000220D6B2202A18D14A
:1008B0001D0040352A78012A13D0242222701B689B
:1008C000233A1968074891431960196801400020CC
:1008D000196019683943196019680A431A6026704B
:1008E0002870F0BDFFEFFFFF0200F0B54132147831
:1008F0000300E5B20220202C17D11C0040342678DA
:10090000012E12D0223010701B6823381E68074F4A
:1009100086431E601E6809023E4031431960196813
:1009200008431860002015702070F0BDFFF0FFFF35
:10093000F0B50400012587B0002832D0304D435D6A
:10094000DAB2002B04D1AA239B00C25402F082FC2D
:1009500003236355206801F027FA002301271900BB
:100960006068834220D3002228261100904233D8A9
:1009700023006A46103343CB43C203CB03C2A268B1
:10098000E3686168206801F019FA0023621DD377DB
:1009900001226255E2691D00012A02D1200000F007
:1009A00031FE280007B0F0BD29262822B4465A435C
:1009B000A2189444664637702826B4469444664686
:1009C00033702B26B4469444664601333170DBB253
:1009D0009163D1631164C4E733005343E3181F00EC
:1009E0006A37FF373970013F3A70F97081336C3FD5
:1009F000F967FF33803701323960D2B21960B5E749
:100A0000A902000070B5AA25AD00435D04000220D4
:100A1000012B09D001236355206801F0BBF9206840
:100A200001F0C9FB0020605570BD70B5AA25AD006E
:100A3000435D04000220012B08D001236355631D90
:100A4000D977206801F0B0FB0020605570BD000030
:100A5000F0B5040085B0006801F0B5FB8023050007
:100A60001B021D40184201D100F017FC2068821DB6
:100A7000D38F1BB2002B01DB05B0F0BD0F21D38F4C
:100A8000194001910F219AB20B4200D0C3E010230C
:100A9000110019401A422AD10388B84A1340802213
:100AA000120213430380030050331A8823002833B3
:100AB0001B78DB00C3189B18B14A20009B181B88C9
:100AC000E26B9B059B0D6364D318E36302F0F4FBB8
:100AD000631DDA7F002AC9D0206C22680028C5D1A6
:100AE0008025D97F4C3229431180D877BEE7028810
:100AF00080211600090193B20E400A4222D0030061
:100B000050331A88B4235B00E35CAC21DB00C318CC
:100B10009B189C4A89009B1822001B8869329B0500
:100B20009B0DFF32D3616118D28801F0B9FD2268B4
:100B30009549138820000B4080210B43138002F05D
:100B4000A5FB93E71BB2002B00DB8FE703888E4ADF
:100B500025001340802213430380030050331A887A
:100B6000B4235B00E35C6935DB00C3189B18854A3E
:100B7000FF359B181B889B059B0DEB610DD06969A8
:100B800000290AD0EA8801F08BFD6B69EA6931001F
:100B90009B1820006B6102F082FB21680A8893B2E7
:100BA000120500D562E7C02292011340934200D1A2
:100BB0005CE70B0050331A88724BCB189B181A88CD
:100BC0009205920D1A802A693E2A0CD91F255009D8
:100BD0002A4055426A41801A1A88800210436B4AA3
:100BE000024392B205E0002A0ED180201A8800024A
:100BF00002431A800A88664B1A40C0239B01534067
:100C0000644A13430B8031E7012550082A408018BD
:100C100080021A88E4E7019B9F00C219138899B2E9
:100C20001BB20291002B00DBF6E0138856490B4003
:100C300080210B4313802823019A5343E3181A00A1
:100C40001D007532FF3212786935FF35002A1AD13E
:100C50000200503211882A78D200521849491218DD
:100C6000521812889205950D002A00D1B3E01A009F
:100C70006F327D33FF331900FF322B001288096871
:100C800001F00EFDA7E019006C31FF3109782A78D8
:100C9000022900D084E08026F601B4466546029E13
:100CA00081332E4003960600503600966646029D1C
:100CB000FF331968354230D0009D2E88D500761953
:100CC0002F4D361876193588AD05AD0D8D420DD9ED
:100CD00000211960910041180E882D4B1E40802381
:100CE0009B0173402B4E33430B8002E0491B19607C
:100CF000F0D0029B5B0607D5920082181388264924
:100D00000B4026490B431380002D64D02823019A01
:100D10005343E3181A007132ABE7009D2E88D500CB
:100D20007619184D361876193588AD05AD0D8D42FA
:100D30000DD903991960910041180E88144B1E407B
:100D400080239B017340134E33430B8002E0491B09
:100D50001960F0D0029B5B0607D4920082181388BA
:100D60000D490B400D490B431380002D33D0282330
:100D7000019A5343E3181A0073327AE70F8FFFFF8B
:100D800002040000060400008F0F00000080FFFF37
:100D90008FBFFFFF808000008F8FFFFFC0800000AB
:100DA000920082181688CE493140CE4E31431180D0
:100DB0002A78910041180D88010050310988D2002D
:100DC000521812186D0462D5C7495218128892053C
:100DD000950D002A9ED128230199594362181600C7
:100DE0008536FF363068083E4019B06030684019DB
:100DF000306010008130FF300068002803D0FC32E2
:100E0000D26F95424BD2019A20005343E3186933C5
:100E1000FF33197802F043FA8022029B20681342C4
:100E200000D123E6C2191388B049019D0B40B04997
:100E30000B439BB2138028235D4365192A002B3294
:100E40001178EA18012959D1002329002B64343183
:100E50000978994236D04021029E029F0E402935E2
:100E60000F4234D02978994220D1030011785033B1
:100E70001D889D4BC900C3185B19C9180B889C4875
:100E80009B059B0D0B800B8803439BB219E099498E
:100E9000521812889205950D002A9CD06BE7693193
:100EA000FF312068611801F0A7F9B5E7012909D1E0
:100EB00001008D4E50310D8811788019C9004019FC
:100EC00009180B801178200002F0F6F9CEE52B7896
:100ED000002B06D10300117850331D88C900854BC3
:100EE000C9E7012BEED10300824D503319881378E6
:100EF0004019DB0040181B181E80E3E71278029FA0
:100F00000392D20000928022029952002E6C174068
:100F100011421ED1020050321288009982185218D4
:100F20007149521812889205920DB24202D3039968
:100F30002F64C8E7E96BB61A8918E963696C2E64F7
:100F40008A1801996A6401315943611801F054F912
:100F50008CE540220300029F029917405033114252
:100F600000D1DCE060491A8847180099BA18525A33
:100F70009205920D94460022B44501D26246B21AFF
:100F8000282601994E43A619326480260299F6015B
:100F900031400E00002A4AD129218C46AC446146DA
:100FA000097800292ED11A880099BA185218178882
:100FB0004F49BF05BF0D178017880F43BFB2178079
:100FC0004C4A1B888018C018009BC01803889B05DA
:100FD0009B0D038003880B439BB203802000039981
:100FE00002F06AF9002E00D1D8E02B0028331B78DC
:100FF00022689B00D218138839490B403E490B43A5
:101000001380CBE00B000129E8D14F339C46844488
:1010100063461B880099FB185B181A8063463549A4
:101020001B884018C018009BC0180280D6E7002912
:1010300008D0039B990041180A88294B13402E4A77
:1010400013430B802823019A5343E3181E004C36A8
:101050003278012A00D0A1E0DA6B996C62440292E6
:10106000DA635A6C62445A649A6B914229D3891AA2
:1010700099642B002933197893B2002945D10100D6
:1010800050310988009E791889190E88B605B60D69
:101090000E803E2A1FD91F2756093A4057427A41EF
:1010A000B61A0A88B6023243114E324392B20A800F
:1010B000282201994A43A218128E029901F087F85A
:1010C0006CE0002902D162463170D2E70022327012
:1010D0009A640A00CDE7002A10D10A88E4E7C046E6
:1010E0008F8FFFFFC0800000020400000F8FFFFF02
:1010F0000080FFFF0604000080C0000001275608A2
:101100003A40B618B6020A88CFE70129D0D10200CA
:1011100050321288BF18009ABF183B80C8E7A9490F
:101120001A888C46009984446244525A9205920D62
:10113000B24200D8B71A282601994E43A61937643F
:1011400080260299F60131400E00002F40D12A007E
:1011500029321278002A2BD19B491A88401880180E
:10116000009A9A49801802889205920D028002889E
:101170000A4392B202801B88009A63449B181A8823
:101180009205920D1A801A880A4392B21A802000A2
:10119000039902F091F8002E00D126E728352B782C
:1011A00021689B00C9180A88894B1A40302326E51C
:1011B000012AECD10300844950331A884018801862
:1011C000009A801807801B8863449B181F80DEE705
:1011D000002908D1039B990041180E887D4B3340AC
:1011E0007D4E33430B80282301994B43E3181F00A6
:1011F0004C3739780129D1D1D96B9E6C891802916D
:10120000D963596C89185964996B8E4226D3761A22
:101210009E642B0029331A788BB2002A33D1020046
:1012200050321288009E624492191688B605B60D97
:1012300016803E291CD91F274E0939404F4279415B
:10124000761A1188B6023143604E314389B211805B
:10125000282201994A43A218528E2EE7002E02D16D
:1012600011003E70D5E7002231009A643A70D0E751
:10127000002901D11188E7E701274E083940761887
:10128000B6021188E1E7012AE2D102005032128849
:101290000099624452181380DAE743050ED523689B
:1012A0004E490633DA8F20000A40DA8702F016F83A
:1012B00029002000FFF7B9FBFFF7DEFB430407D549
:1012C000236847490633DA8F0A40DA87FFF7D4FBF1
:1012D000802301009B011940184204D02368414932
:1012E0000633DA8FF0E7C3041AD5042023680233EB
:1012F000DA8F8243DA87DA8F00188243DA87B823DD
:101300009B00E25C012A03D12000E15400F08EF939
:10131000200002F007F8236833490633DA8FD3E759
:10132000030513D5082123689A1CD08F0633014387
:10133000D187D98F2D480140D9870423D18F0B4302
:10134000D387200001F0DCFFFFF796FB80252842C1
:1013500021D0B82023688000991DCA8FAA43CA876C
:10136000225C002AEDD1991CCD8F04322A43CA8712
:101370000822CD8F54332A43CA8701213C222154AD
:101380001B8820009B081340B9229200A35000F054
:101390004DF9FFF771FB83050AD52368144906331D
:1013A000DA8F20000A40DA8701F091FFFFF764FB33
:1013B000C00501D4FFF760FB23680E490633DA8FBE
:1013C00082E7C04606040000020400000080FFFF20
:1013D000BF8FFFFF8F8FFFFF80C00000FFFBFFFF6D
:1013E000FFBFFFFFFFDFFFFFFFEFFFFFFFF7FFFF85
:1013F000FFFDFFFFFFFEFFFF70B50500072008405F
:1014000049B22824002919DA411C6143273C691894
:101410004C7008700A61CB70022B01D100230B7154
:10142000AA24A4002B5D0220012B06D001232B55FA
:10143000286800F0D7FC0020285570BD44432100E7
:1014400000262C1969316A34FF31FF34691826707F
:10145000DFE707220A4049B270B5282304000029BB
:1014600013DA511C5943273B41184B70AA250A70C7
:10147000AD00635D0220012B06D001236355206877
:1014800000F0BEFD0020605570BD53431900693166
:10149000FF31C318411800206A33FF331870E5E7A5
:1014A00070B50724214021344C4305192E007D36A8
:1014B000FF3632602A008132FF3213602B00002693
:1014C0008533FF3369351E60FF351B3B1E70297065
:1014D00021006931FF314118006800F08DFE3000B5
:1014E00070BD70B528260724214034004C430419F0
:1014F0002500E26301224C3523642A700025A36491
:10150000230065642933A4191A7021708918714366
:101510004118006800F070FE280070BD0722436883
:1015200070B50A40040001209A4217D848B2282317
:10153000002814DA511C5943273B61184B700123D2
:10154000AA258B700A70AD00625D02209A4205D018
:101550006355206800F0CEFD0020605570BD4B4300
:1015600019000020E31869316A33FF31FF33611835
:101570001870E4E70F23426870B50B4004000120A7
:10158000934219D807220A4049B22823002914DAC5
:1015900011185943611848700025AA268D700A70E9
:1015A000B600A35D0220012B06D00123A3552068BD
:1015B00000F0C0FD2800A55570BD53431900002060
:1015C000E31869316A33FF31FF3361181870E3E7BC
:1015D00010B50C0021060CD507212140282401312B
:1015E0006143401899B2002A08D10273C1800020DB
:1015F00010BD282161436931FF31F2E70122836088
:101600000273F4E703680200BA20012110B58000DC
:10161000B82411500020A400105554331A881143E7
:101620000222198019880A431A8010BD70470000F1
:10163000F0B5040085B000284ED00368DB0733D432
:1016400023689B0700D58AE023681B0700D5CAE002
:1016500023685B0700D5EDE02368DB061AD56269D5
:101660000423BB4D012A00D056E1696B02270B43CE
:101670006B636B6B1A436A63FEF798FF06006B6B34
:101680003B4200D141E1F8216A6BA3698A43DB0048
:1016900013436B6323689B0600D565E1636A002BE7
:1016A00000D0A4E100202FE00C22A94D6B6813406C
:1016B000042B0BD06B681340082B0FD1C0226B6832
:1016C0005202134080225202934207D12B689B039F
:1016D000B6D56368002BB3D1012015E06368012BF8
:1016E00014D180232A685B0213432B60FEF75EFF50
:1016F00080270600BF022B683B42A1D1FEF756FFB0
:10170000801B6428F7D9032005B0F0BD002B16D14B
:101710002B68904A802713402B602B688E4ABF02AB
:1017200013402B60FEF742FF06002B683B4200D1BE
:1017300086E7FEF73BFF801B6428F6D9E3E7052B1D
:1017400005D180232A68DB0213432B60C9E72B688D
:10175000804A13402B602B687F4A1340C5E70C2258
:101760007B4D6B6813420BD06B681340082B15D16F
:10177000C0226B68520213408022120293420DD1A4
:101780002B689B0702D5E368012BA5D1F8212A68B5
:1017900023698A43DB0013432B6055E7E26801238A
:1017A000002A0FD02A68022713432B60FEF7FEFEA3
:1017B00006002B683B42E9D1FEF7F8FE801B0228A9
:1017C000F7D9A0E72A6802279A432A60FEF7EEFEBF
:1017D00006002B683B4200D136E7FEF7E7FE801B90
:1017E0000228F6D98FE7E2690123594D002A10D06B
:1017F0006A6A022713436B62FEF7D8FE06006B6A23
:101800003B4200D024E7FEF7D1FE801B0228F6D928
:1018100079E76A6A02279A436A62FEF7C7FE060002
:101820006B6A3B4200D113E7FEF7C0FE801B022823
:10183000F6D968E780220021454D5205EB690091F9
:10184000134208D1EB691343EB61EB691340039337
:10185000039B012300938027404E7F0033683B4267
:1018600015D0A368012B22D12A6A13432B62FEF7FD
:101870009DFE022706002B6A3B423FD0009B012BB6
:1018800000D0E9E6EB69364A1340EB61E4E63368E1
:101890003B433360FEF78AFE019033683B42E0D160
:1018A000FEF784FE019BC01A6428F6D92BE70122BB
:1018B000002B14D12B6A022793432B622B6A03322D
:1018C00093432B62FEF772FE06002B6A3B42D5D093
:1018D000FEF76CFE234B801B9842F6D913E7052BCD
:1018E00005D1296A013B0B432B622B6ABDE72B6AAA
:1018F000934304222B622B6A9343B7E7FEF756FE0D
:10190000184B801B9842B6D9FDE6FEF74FFE801BB0
:10191000022800D8B3E6F6E6053203D16A6B9A4393
:101920006A63B0E66A6B0227134301226B636B6B39
:1019300093436B63FEF73AFE06006B6B3B4200D1AC
:10194000A8E6FEF733FE801B0228F6D9DBE6C04688
:1019500000100240FFFFFEFFFFFFFBFF0070004092
:10196000FFFFFFEF881300000C22554D6B681340FA
:10197000934209D06B681340082B0ED1C0226B68CC
:1019800052021340934208D16B6B9B0300D485E64F
:10199000236A012B00D09FE680E6236A002B13D038
:1019A00080236A6B5B0213436B63FEF7FFFD8027A6
:1019B0000600BF026B6B3B4200D06FE6FEF7F6FD00
:1019C000801B0228F6D99EE66B6B3E4A80271340A7
:1019D0006B63FEF7EBFD0600BF026B6B3B4200D171
:1019E0005CE6FEF7E3FD801B0228F6D98BE60C21AE
:1019F000334D6A680A40082A47D0334A022B32D155
:101A00002B68802713402B60FEF7D0FD0600BF0433
:101A10002B683B4221D10F22EB6A80269343226B35
:101A2000B6041343EB62A16AE36A6A680B43274971
:101A30000A4013436B6080232A685B0413432B60C6
:101A4000FEF7B4FD04002B68334200D02AE6FEF70F
:101A5000ADFD001B0228F6D955E6FEF7A7FD801B59
:101A60000228D5D94FE62B68802613402B60FEF75D
:101A70009DFD0400B6042B68334200D112E6FEF748
:101A800095FD001B0228F6D93DE6012B00D123E687
:101A9000C0216B68A06A4902EA6A1940814200D0FD
:101AA0001AE60F210A40216B8A4200D014E6F02288
:101AB00092031340E26A934200D1F3E50CE6C0467C
:101AC00000100240FFFFFEFFFFFFFFFEFF7FC2FF8F
:101AD0000C2070B5134D6B681840082808D00C38DE
:101AE000431E9841104B40421840104BC01870BD27
:101AF0000F200F499A0C02408C5CEA6A0D490240A3
:101B0000895CC0228020520213404002834201D1EE
:101B1000094802E09342FBD10448FEF709FB604309
:101B2000E5E7C0460010024000A69DFD006CDC0207
:101B3000083500081835000800127A00F7B50400CF
:101B40000F00002801D10120FEBD01223A4D2B6873
:101B500013408B421CD32268930722D4D2072FD480
:101B600001232A681A40BA4257D82368334D5B07CD
:101B70005AD4FFF7ADFF6B68314A1B061B0FD35CCD
:101B80003049D84008600320FEF7D0FC0020DBE796
:101B90002B6893430B432B602B6813408B42D2D1AD
:101BA000D9E72649530704D5E0234868DB000343FF
:101BB0004B60F0204B688343A06803434B60CDE744
:101BC00062681E4E012A03D133689B0305D4BAE72D
:101BD000022A1AD133689B01B5D5032173688B4360
:101BE00013437360FEF7E2FC01900C2372681A4005
:101BF00063689B009A42B3D0FEF7D8FC019BC01AE1
:101C0000114B9842F1D903209EE7032A01D1736B4F
:101C1000DBE733689B07E0D495E72A689A432A609C
:101C20002A681A42A1D08EE76B68084A1340E2681E
:101C300013436B609DE7C046002002400010024045
:101C4000F83400080000002088130000FFF8FFFFB0
:101C5000F0B50368050085B0DB032BD58022002199
:101C6000454C5205E3690091134208D1E3691343DF
:101C7000E361E36913400393039B012300938027EF
:101C80003E4E7F0033683B4244D0216AC0220800A8
:101C900092006B683A4E104011424DD1236A6A6837
:101CA000334013432362009B012B03D1E369354A80
:101CB0001340E3612B68DA0706D503202E490A6B2F
:101CC0008243A86802430A639A0706D52A492E4828
:101CD0000A6B0240E86802430A639A0606D51020A0
:101CE00025490A6B8243286902430A639A0306D591
:101CF000802021490A6B8243A86902430A630020BD
:101D00005B0517D540211C4A136B8B4369690B4354
:101D100013630FE033683B433360FEF747FC0190E9
:101D200033683B42B1D1FEF741FC019BC01A6428E5
:101D3000F6D9032005B0F0BD13408342AED0802217
:101D4000236A206A1900520202432262226A0F4863
:101D50003140024022622162DB079FD5FEF726FC5C
:101D600007000222236A134298D1FEF71FFC084B9A
:101D7000C01B9842F5D9DCE700100240007000401B
:101D8000FFFCFFFFFFFFFFEFFFFFFCFFFFFFFEFF7A
:101D900088130000821D03000020D087014A02330F
:101DA000DA87704780BFFFFF0230C38F024A1340BB
:101DB000C38700207047C0467F40000084B010B544
:101DC0000400049205930122831C0020DA87D8873F
:101DD000A31D5034D8870391208010BC08BC04B0E8
:101DE00018470000F7B50E78794AB300C3181C886D
:101DF000CF781440012205000092032F08D8380044
:101E0000FEF782F902423F3C802292001443009781
:101E1000704A1443A4B21C8018886F4C2040304391
:101E2000104380B21880F0008446087BAC445035E3
:101E30000195002800D068E0CD8848786D086D00D5
:101E4000002823D080200199C00009886144091826
:101E50000D801988490604D5198821405F4C21431B
:101E600019805F4D012F00D1ABE020211C882C4050
:101E700061400A4392B200981A80FEBDC022D2008F
:101E8000144300220092C3E78022F8E70198096911
:101E90000788544867443F1801983D800588524898
:101EA00065442D182F88BF05BF0D2F803E290DD901
:101EB0001F204F0901400800414241417F1A2988F3
:101EC000BF020F434949394389B205E0002915D1C2
:101ED000802729883F02394329801988490404D57D
:101EE00019882140424C2143198042491C880C40EA
:101EF000C021002E00D080218901B9E701204F08C0
:101F000001407F18BF022988DDE71D88022F3AD1E2
:101F1000394E2540354301981D80058880200E8963
:101F20006544C00076082D18760001982E8005883B
:101F30004E892C48654476082D1876002E80497805
:101F4000274E8C46802160462A4DC90100281FD1AA
:101F50001F880F4204D01988254F2140394319802A
:101F60001988490604D5198821401C4C2143198041
:101F7000C0211C8889012C406140114389B219801D
:101F80001988314075E71D4E35401543ADB2C2E7A3
:101F90001888084204D01988154821400143198047
:101FA0001988490604D5198821400C4C2143198011
:101FB000012F09D020211C8834406140114389B28F
:101FC00019801988294054E719883140F6E7C0463E
:101FD0008F89FFFF8080FFFF8F8FFFFFC080000091
:101FE000BF8FFFFF04040000060400000080FFFF15
:101FF00080C000008FBFFFFF808100008F8EFFFF39
:10200000F0B50B784A78097B9B00C018314B00294A
:102010001AD1002A0CD00288520605D502882E4912
:102020000A402E490A43028002882D490A402FE0C7
:102030000288520405D5028827490A4029490A43E3
:10204000028002882849F1E78027234E244D264943
:10205000FF01002A21D102883A4204D00288214C93
:102060003240224302800288204C520604D5028866
:102070003240224392B20280028832401443A4B21A
:10208000048002880A401A4392B2028002882A40E1
:1020900013439BB203800020F0BD0288144C3A42E7
:1020A00004D002883240224392B202800288520653
:1020B00004D50288094F32403A43028002883240F8
:1020C0001443A4B2048002882A401A4392B20280C8
:1020D0000288ABE78080FFFF8F8FFFFFC08000008A
:1020E000BF8FFFFF80C000008FBFFFFFC080FFFFDA
:1020F00080C0FFFF0B780C4A9B00C0184B7801880A
:10210000002B08D0094B194010234B4013439BB2BE
:10211000038000207047064B194080235B014B4031
:102120001A4392B20280F4E78080FFFFBF8FFFFF67
:102130008FBFFFFF0B7B002B19D10B789B00C018C2
:102140004B78002B15D003885B0605D50388104A11
:102150001340104A13430380CB78012B07D00E4B5A
:1021600002881A40202353400C4A13430380002066
:10217000704703885B0405D50388054A1340084A65
:1021800013430380074B02881A40C0239B01EAE7F0
:102190008F8FFFFFC0800000BF8FFFFF8080000097
:1021A00080C000008FBFFFFF002902D180234C3088
:1021B00003800020704780225830038812021343A6
:1021C0000380002070470630C08F80B2704730B562
:1021D00080240133E40012195B0880185B00CB18DF
:1021E000401A44188B4200D130BD4A780D78120253
:1021F0002A4322800231F4E7F0B54A7805000C004A
:102200000B7B87B0012A00D01BE10A698F6902921B
:10221000974200D917002A00503261690192002BC1
:102220001DD1BFB23B00E2882800FFF7D0FF019B21
:10223000B54A19882378AA18DB0052189B181F800A
:102240002378B24A9B00EB181988114030224A408B
:10225000AF490A4392B200201A8007B0F0BD22783D
:10226000E0789300D200266AEB180392022800D08F
:10227000D1E0029AB24200D3BBE01A88A548F61B0F
:102280001040A54A104318801B8840209C46624697
:10229000024005926246CB1904932662BBB2024209
:1022A00055D0019A128894469C4AA818039A604413
:1022B0008218138062892800FFF789FF049B029A25
:1022C00063610023B24201D2F31B3E0062782362B5
:1022D000B3B2002A2ED1019A8B491088227869184E
:1022E0000918D200521811888905890D11803E2ED7
:1022F0000CD91F203040710946427041091A1088DC
:10230000890208438649014389B205E0002E0AD1BB
:10231000802011880002014311802289049928003D
:10232000FFF755FF8CE7012170083140401880020B
:102330001188E8E7012AF0D12A0073495032108849
:1023400022786918D200091852181380E5E7019A1B
:10235000128894466C4AA818039A60448218138025
:1023600022892800FFF733FF049B029A6361059BD3
:10237000B24201D2F31B3E0062782362B3B2002A5C
:102380002AD1019A65491088227869180918D20063
:10239000521811888905890D11803E2E0CD91F20F5
:1023A0003040710946427041091A10888902084379
:1023B0005B49014389B205E0002E06D180201188D7
:1023C0000002014311806289A8E7012170080E40D4
:1023D000801911888002ECE7012AF4D12A004F49C4
:1023E0005032108822786918D200091852181380C8
:1023F000E9E718884B4F464A3840104380B21880AE
:10240000019B039A1888404BEB181B189A18B3B21B
:102410001380228983E71888F61B019A26621688A2
:10242000BBB2400607D53D4AA818039A8019821806
:102430001380628973E7344AA818039A80198218B6
:10244000E6E7002B3CD18A6909698A4201D9531A0F
:102450000A00A3612B00314950331888237869188A
:102460000918DB005B1819888905890D19803E2A37
:1024700018D91F205109024050424241891A1A8836
:1024800089021143264A0A4392B21A802378264AC7
:102490009B00EB1819881140C02292014A40234941
:1024A0000A43D8E6002A04D180211A8809020A4387
:1024B000EBE7012051080240891889021A88E2E7F7
:1024C000CB78022B00D07CE0002A4CD106000E4BCA
:1024D000503631882278C3185B18D200D21813887E
:1024E0009B059B0D138023693E2B21D91F2018408B
:1024F000474278415909091A108889020843084956
:10250000014389B21AE0C04602040000BF8FFFFFFA
:102510008080FFFF8F8FFFFF808100000604000096
:102520000080FFFF8F8EFFFF8FBFFFFF80800000C6
:10253000002B2BD1802011880002014311805249C9
:102540003088227869180918D20052181188890534
:10255000890D11803E2B20D8002B2BD18021138890
:1025600009020B431380E369002B8FD0237847497E
:102570009B00EB181A880A408A4202D0002A00D039
:1025800084E743491A880A40424990E701215808E4
:102590001940401880021188B2E71F2059090340F2
:1025A00058424341C91A1388890219433A4B0B43D5
:1025B0009BB2D7E7012059080340C9188902138844
:1025C000F5E70120834200D047E68B6909690020C6
:1025D0008B4201D9581A0B00A061002A00D055E7A0
:1025E0002E002E4950363088227869180918D200FA
:1025F000521811888905890D11803E2B0CD91F2096
:102600001840474278415909091A1088890208433D
:102610002149014389B205E0002B19D1802011889E
:10262000000201431180184930882278691809187E
:10263000D200521811888905890D11803E2B0ED8C1
:10264000002B19D18021138809020B4313801DE749
:10265000012158081940401880021188D9E71F202D
:102660005909034058424341C91A13888902194342
:10267000094B0B439BB2E9E7012059080340C918F5
:1026800089021388F5E7C0460604000040400000B8
:102690008F8FFFFFC08000000080FFFF020400005A
:1026A000F0B580255C08ED00521926000D00801859
:1026B000471A7A19002E07D1640000190919DB079F
:1026C00001D503880B70F0BD1288013E92B22A70CA
:1026D000120A6A700235ECE729230380004870472C
:1026E0004400002029230380004870477000002028
:1026F0002923038000487047B4000020AE239B00CC
:10270000C358002018757047AE22920010B5845847
:1027100003002269012A08D1AF2292009B586178F8
:10272000DB682078984700232361002010BD00005B
:102730000A23038000487047A8000020AE2370B52C
:1027400004009B00C5580433E35869782878DB6897
:1027500098472A0002230121200000F086FE002075
:1027600070BD0000F7B5AE22920084586A4603009F
:102770000878971D002205003A806032154010420B
:1027800026D0202D3CD148780238092838D8FDF7CA
:10279000BBFC140A37373737371710058B7863605F
:1027A00000252800FEBD211D0122180000F056FC66
:1027B000F6E74B881B0AA360F2E721000831F3E734
:1027C00001222261CA881800210000F05DFCE7E7C1
:1027D0004E780B2E14D83000FDF796FC061212121C
:1027E000121217121212363FA72292009A5C032A85
:1027F00006D139001800013A00F030FC3500D0E76E
:10280000180000F003FC0225CBE74C88240A222C98
:102810000ED1C9880A1C022900D90222AF218900E1
:10282000595892B208680100180000F017FCB8E788
:1028300000200200212CF6D1C9880A1C092900D9E0
:1028400009220A4892B2EEE7A72292009A5C032A74
:10285000D6D12100023A0C31E6E7A72292009A5C19
:10286000032ACDD18B78E3609BE7C0469C00002013
:1028700070B504000026812100F0B5FD0121200083
:10288000E66200F0B0FDAE252300AD00FC331E670C
:102890006359B34208D0AF239B00E3589B68984725
:1028A000605900F0EFFD6651002070BDF8B50400DE
:1028B000012702230322812100F089FD0223032244
:1028C00039002000E76200F082FD2300FC331F671F
:1028D000182000F0D3FDAE239B000500E050380027
:1028E000002D0CD0002604332E75E3585B68984702
:1028F00002232A003900200000F0B7FD3000F8BDA7
:1029000003000220002903D0AF220020920099503A
:102910007047022310B5002813D0AD239B00C45884
:10292000002C01D00024C450002902D0AC239B000D
:10293000C150A72301219B00C154027000F006FD85
:102940000023180010BD03000220002903D0AD228F
:10295000002092009950704710B500F02FFD002024
:1029600010BDAD239B00C25810B50223002A04D02D
:1029700013689847431E98414300180010BDAD23CB
:1029800010B59B00C3585B689847002010BD00003D
:10299000AA239B0070B5C5180400280000F022FB94
:1029A000A52301229B00E250114BE25A163BE25054
:1029B0001033E15C1F230B40012B09D0022B0CD0FC
:1029C000002B0FD12900200000F01EF9002070BD5F
:1029D0002900200000F04EFAF8E72900200000F05E
:1029E00071FAF3E77F232000994300F005FDEDE73E
:1029F000AE02000070B50D0004001100002D2ED1B4
:102A0000A5239B00C258032A22D102005532FF326F
:102A1000D368106983420AD91B1AD36082B29842E4
:102A200000D99AB2200000F03FFB280070BDAD2312
:102A30009B00E3581B69002B06D0A7229200A25CE2
:102A4000032A01D120009847200000F035FBECE775
:102A5000052AEAD12900C55000F0CEFCE5E7AD23F8
:102A60009B00C3589B69002B08D0A7229200825C70
:102A7000032A03D1290098470025D6E70225D4E789
:102A8000F8B50D0004001100002D4DD1A5239B00C9
:102A9000C358022B41D1036A466AB34213D99B1B28
:102AA00003629AB200F0E8FA2B002A002900200005
:102AB00000F0DBFCA8239B00E25C012A01D100228C
:102AC000E2542800F8BDC76931003800FDF7B6FBB5
:102AD00000290DD1BE420BD8A626B600A3599F42AD
:102AE00006D22A002900200000F0C6FAA551DBE733
:102AF000AD239B00E358DB68002B06D0A722920091
:102B0000A25C032A01D1200098478021200000F018
:102B100073FC200000F0DCFACCE704229343C9D117
:102B2000802100F069FCC5E7AD239B00C3585B69B9
:102B3000002B08D0A7229200825C032A03D129002F
:102B400098470025BDE70225BBE7002270B50400C9
:102B50001100402300F03BFC230001254026FC33FC
:102B60008021DD659E6600223300200000F02FFCEE
:102B7000A72300219B00A5616662E554083BE15054
:102B800010336160E1501433E3588B4205D0AD231C
:102B90009B00E35820005B689847002070BD0174DB
:102BA00000207047A7239B00C15C034A8154042284
:102BB000C25400207047C0469D020000A7239B001E
:102BC000C25C042A02D1024A825CC25400207047CF
:102BD0009D020000A72310B59B00C35C032B06D108
:102BE000AD239B00C358DB69002B00D09847002021
:102BF00010BD10B50400802100F0FEFB0021200074
:102C000000F0FAFB10BD000060220B7873B5134092
:102C10000D001900921820390400114212D0002B27
:102C200000D096E06878092800D992E0FDF776FA9E
:102C3000F0000D0191000501910083001200910048
:102C4000DA00A400AD239B00C35829009B68984775
:102C5000002076BD00236A46D3806B88180A0138AD
:102C6000062876D8FDF750FA0417267575404B00F4
:102C7000AC239B00E358207C1B686A46911D984753
:102C80006B46D988EA88002950D0002A43D1200019
:102C900000F012FADCE7AD23227C9B00E358002A07
:102CA00006D19B6A6A46901D984702234370E7E766
:102CB000DB6AF7E7D8B205284BD8AC239B00E35872
:102CC000FDF722FA03080A0C0E105B68002B40D0B7
:102CD000207CD2E79B68F9E7DB68F7E71B69F5E73B
:102CE0005B69F3E79B69F1E7237C002B31D1AD23CE
:102CF0006A469B00E358901D5B6B9847C0E7237CB6
:102D0000002B26D1AD236A469B00E358901D1B6B18
:102D100098470723CAE70B1C914200D9131C694648
:102D20009AB2CB800100200000F098F9EB88002BCC
:102D300000D08DE7ABE7AB88002B0AD1EB88002BE6
:102D400007D16E887F2E04D8A725AD00635D032BC5
:102D500003D12000FFF74DFF7AE7444BF1B2E15475
:102D6000200000F070FB200000F0A6F90223002EE6
:102D700000D1012363556BE7A9783D4D29700129E6
:102D8000E7D8A7239B00E25C022A09D0032A15D0CA
:102D90002000FFF72EFF20002978FFF7F0FD57E70E
:102DA000002900D173E7012103226160E254200071
:102DB000FFF7D7FD022800D069E7CAE7002906D14E
:102DC00002222000E2546160FFF7D9FD5FE76168ED
:102DD000012900D15BE7C9B22000FFF7D0FD2978B7
:102DE0006160E4E7EA88012AB3D1A7239B00E35C92
:102DF000022B06D8002BACD000232100A3600831A1
:102E000002E0211D032BA4D1200000F027F91FE7C9
:102E1000A7239B00E35C013B022B9AD8EB88022B93
:102E200097D1A9239B00E2580323002A00D1023B3B
:102E300021000222E3600C31E6E76B88012B00D011
:102E400006E7A9229200A35021E7A7239B00E35C99
:102E5000013B022B00D97CE76B88012B00D0F7E601
:102E6000A92300229B00E25011E7C0469E02000009
:102E7000B801002060220B7870B51A4004000D00E4
:102E8000402A01D05B0619D4A7239B00E35C013BD9
:102E9000022B13D82B79012B10D8AD239B00E358BC
:102EA00029009B6820009847EB88002B04D100285C
:102EB00002D1200000F000F9002070BD2000FFF7D3
:102EC00098FEF9E770B50A7804000B008888602145
:102ED0000A4015004918203D0D422BD0002A39D157
:102EE0005A78C1B2012A48D0032A2CD0002A31D105
:102EF000A7239B00E35C022B59D0032B2AD10F237D
:102F000014220B405343E318000660D59B69002B45
:102F100020D07F230B4001335343E51800204B069C
:102F200004D0200000F07AFA431E984102222900C2
:102F3000286048E0AD229200A25819002000926853
:102F40009047002070BDA7229200A25C022A24D0E4
:102F5000032A03D02000FFF74CFEF2E75A88002A2C
:102F600007D14A0605D0DB88002B02D1200000F0F3
:102F700043FA200000F0A0F8E3E7A7229200A25C49
:102F8000022A0AD0032AE5D15B88002BD9D14B064F
:102F9000EFD0200000F039FAEBE74B06DAD0200042
:102FA00000F02AFA8021200000F026FAC9E749063D
:102FB000D0D121005531FF31000601D54139FF390B
:102FC000002302220B60200000F048F8B9E7FC3330
:102FD000DB6D002BBED07F230B405A435532FF32AE
:102FE000A5189BE70B7803704B784370CA788B78F1
:102FF00012029B1843804A790B7912029B18838036
:10300000CA798B7912029B18C380704710B50400EF
:10301000802100F0F1F90021200000F0EDF910BD51
:1030200070B50025461EA8420FD02B000135745DF7
:10303000002CFAD1DBB201335B0013800B70032349
:103040004B70013B0578002D00D170BD5A1CCD544A
:10305000D2B202330130DBB28C54F3E71300A52265
:1030600010B50224920084500A00C361002103625B
:1030700000F0F2F9002010BD10B513000A00002185
:1030800000F0EAF9002010BD1300A52210B50324BA
:10309000920084500200FC32136653660A0000213D
:1030A00000F0E3F9002010BD10B513000A00002164
:1030B00000F0DBF9002010BDA52304229B0010B511
:1030C000C25000231A00190000F0C6F9002010BDFC
:1030D000A52305229B0010B5C25000231A00190039
:1030E00000F0C3F9002010BD10B5114C00222000E3
:1030F0001049FFF70EFC002801D0FDF78DF92000E4
:103100000D49FFF720FC002801D0FDF785F92000CC
:103110000A49FFF7F5FB002801D0FDF77DF92000F3
:10312000FFF71AFC002801D0FDF776F910BDC04664
:10313000BC010020F40000200C000020E40000206E
:10314000002070470020704700207047122301487C
:103150000B80704710010020042301480B8070474A
:10316000240100200023F0B51F00060FF5B22C004B
:103170003734092E00D8073C0133DBB20C704F7096
:10318000000102319A42F0D1F0BD00001A2370B55F
:103190000B800B4B0B4C18680B4B1B68C01800289E
:1031A0000BD00A4B0822A11C1D68FFF7DBFF210092
:1031B000042228001231FFF7D5FF200070BDC04661
:1031C000ACF7FF1F28010020B4F7FF1FB0F7FF1F67
:1031D00010B5044C0A0021000348FFF721FF20002E
:1031E00010BDC046800400202835000810B5044CEE
:1031F0000A0021000348FFF713FF200010BDC0465E
:10320000800400203B35000810B5044C0A00210062
:103210000348FFF705FF200010BDC04680040020D2
:103220005835000810B5044C0A0021000348FFF788
:10323000F7FE200010BDC046800400206A3500085B
:1032400003000220032B01D8014AD05C7047C0461E
:103250007F35000807B50B4B02689A4211D18021D7
:10326000094B0904DA691F200A43DA610022DB698D
:103270000B4001931100019BFDF79EF91F20FDF704
:10328000C5F907BD005C004000100240AC2310B53A
:103290009B00C1184033C058FFF77AFB10BD2823AC
:1032A0004B43C3187D33FF331A68BC2310B59B0012
:1032B000C058FFF79FFB10BD28234B43C318DA6BA0
:1032C000BC2310B59B00C058FFF7DAFB10BDBC2330
:1032D00010B59B00C058FFF77DFC10BD836870B52A
:1032E0000400022B01D0FDF797F8BC25AD000121A9
:1032F0006059FFF754FC6059FFF727FC70BD0000D0
:10330000BC2310B504009B00C058FFF74BFCA36919
:10331000002B04D00623024A11690B43136110BD30
:1033200000ED00E0836910B50400002B06D00621F3
:10333000054A13698B431361FCF786FFBC239B008E
:10334000E058FFF73BFC10BD00ED00E0BC2370B57A
:10335000040018489B00C450174BB0250360082395
:103360004360063B836003610023AD0060518361CD
:10337000C3610362FDF7DCFA002801D0FDF74CF8C9
:103380000022605911001823FEF722F960595823D2
:1033900000228021FEF71CF9605998230022812128
:1033A000FEF716F96059D82300220121FEF710F923
:1033B000002070BD80060020005C0040B02310B5E6
:1033C0009B00C058FDF71EFBFFF73AFF10BD10B57C
:1033D00014001A002300B024A4000059FEF70CF8D2
:1033E000FFF72EFF10BDB02310B59B00C058FEF7AD
:1033F00030F8FFF725FF10BDB02310B59B00C05873
:10340000FEF78CF8FFF71CFF10BDB02310B59B0032
:10341000C058FEF7AFF8FFF713FF10BDB0234AB254
:103420009B00C358002A07DA7F2211400131573A26
:103430004A439B189878704728224A439B186B335D
:10344000FF331878F7E7B02310B59B00C058FDF79D
:10345000ECFAFFF7F5FE10BD10B5B024A40000593A
:10346000FEF73FF8FFF7ECFE10BD10B5B024A40046
:103470000059FEF715F8FFF7E3FE10BD004870474E
:1034800074090020704703008218934200D17047EE
:1034900019700133F9E7000070B500260C4C0D4D92
:1034A000641BA410A64209D1002600F019F80A4CAA
:1034B0000A4D641BA410A64205D170BDB300EB58A1
:1034C00098470136EEE7B300EB5898470136F2E72C
:1034D00084350008843500088835000884350008E4
:1034E000F8B5C046F8BC08BC9E467047F8B5C04663
:0834F000F8BC08BC9E467047C1
:1034F800000000000000000001020304060708099C
:1035080002030405060708090A0B0C0D0E0F10101C
:103518000102030405060708090A0B0C0D0E0F101B
:1035280053544D6963726F656C656374726F6E692D
:1035380063730053544D333220437573746F6D2099
:1035480048756D616E20696E7465726661636500A9
:10355800437573746F6D2048494420436F6E6669E4
:103568006700437573746F6D2048494420496E7431
:0C357800657266616365000002010200DC
:04358400E900000852
:04358800C100000876
:10358C0000127A000100000004000000AD280008C1
:10359C0071280008652700080000000009270008B2
:1035AC00FD2600083D270008000000000000000078
:1035BC0000000000E5260008D9260008F1260008C6
:1035CC003127000809022900010100C0320904005A
:1035DC000002030000000921110100012202000772
:1035EC000581030200050705010302000500000028
:1035FC0009022900010100C0320904000002030085
:10360C0000000921110100012202000705810302BB
:10361C000005070501030200050000000921110146
:10362C0000012202000000000A0600020000004017
:10363C000100000009022900010100C03209040048
:10364C000002030000000921110100012202000701
:10365C0005810302000507050103020005000000B7
:10366C0000C00000E0000020413100084931000892
:10367C00453100084D31000859310008D13100089E
:10368C00ED3100088D3100080932000825320008A0
:10369C001201000200000040830450570002010296
:1036AC0003010000040309041A03000000000000D9
:1036BC0000000000000000000000000000000000FE
:0436CC0000000000FA
:04000005080004D912
:00000001FF
