:020000040800F2
:100000000040002045090008290800082B080008C6
:1000100000000000000000000000000000000000E0
:100020000000000000000000000000002D08000893
:1000300000000000000000002F0800083108000840
:100040009509000895090008950900089509000818
:100050009509000895090008950900089509000808
:1000600095090008950900089509000895090008F8
:1000700095090008950900089509000895090008E8
:10008000950900089509000839080008810800084A
:1000900095090008950900089509000895090008C8
:1000A00095090008950900089509000895090008B8
:1000B000950900089509000895090008310900080C
:1000C00010B5064C2378002B07D1054B002B02D02E
:1000D000044800E000BF0123237010BD1C01002074
:1000E00000000000A03E0008044B10B5002B03D018
:1000F0000349044800E000BF10BDC04600000000F6
:1001000020010020A03E00080023C25C0133002A29
:10011000FBD1581E7047000002B4714649084900DF
:10012000095C49008E4402BC7047C04603B4714666
:10013000490840004900095A49008E4403BC7047F1
:10014000002243088B4274D303098B425FD3030A16
:100150008B4244D3030B8B4228D3030C8B420DD329
:10016000FF22090212BA030C8B4202D312120902B7
:1001700065D0030B8B4219D300E0090AC30B8B42F5
:1001800001D3CB03C01A5241830B8B4201D38B03A3
:10019000C01A5241430B8B4201D34B03C01A524148
:1001A000030B8B4201D30B03C01A5241C30A8B428B
:1001B00001D3CB02C01A5241830A8B4201D38B0276
:1001C000C01A5241430A8B4201D34B02C01A52411A
:1001D000030A8B4201D30B02C01A5241CDD2C3098C
:1001E0008B4201D3CB01C01A524183098B4201D308
:1001F0008B01C01A524143098B4201D34B01C01AF3
:10020000524103098B4201D30B01C01A5241C3086A
:100210008B4201D3CB00C01A524183088B4201D3D9
:100220008B00C01A524143088B4201D34B00C01AC5
:100230005241411A00D20146524110467047FFE731
:1002400001B5002000F006F802BDC0460029F7D035
:1002500076E770477047C046F0B5284B87B01D0061
:1002600005930023264F04933A23049A234C5343C7
:10027000049AE4180023012651006422A370E3705D
:100280006031AB1C029200931E48330089B2019684
:10029000623A00F073FEB0420AD100233B60049B37
:1002A0003A350133049304370A2BDDD107B0F0BD92
:1002B000BD232A00FF216B70BE3B2E703E60237170
:1002C00063711133013B9BB29672D1721173033289
:1002D000002BF7D16024059E642321000293023491
:1002E0002A3B0193009600220648393BA4B200F055
:1002F00045FE3A36742CEFD1D1E7C04668010020A4
:10030000400100209C090020F0B5602430270C4EED
:100310000C4D85B03368002B09D064230A22029368
:100320002100094801970095633B00F027FE023445
:10033000A4B204363A35742CECD105B0F0BDC046F9
:1003400040010020720100209C090020F7B5002424
:100350001C4E1D4A35009446E4220023624300925D
:100360000C225A43009952186146515862440029A0
:1003700022D0202190680530014391600C225A431D
:1003800000992868521862449168104A6F68019277
:1003900002000320474337305043019A3818890838
:1003A00012180231013391720835132BD8D1013460
:1003B0009836062CCDD1F7BD91680029DED0916822
:1003C0000139DAE72C3F0008AC0300206801002067
:1003D00010B5104B104A19781078884218D01B7845
:1003E0000121DBB21C00AA2013700C4A0C40FF3024
:1003F0001454D0245810084064001055A4249810B8
:10040000DB1008400B40A631FF34FF311055535428
:1004100010BDC0463D0100203C01002068010020C5
:10042000030080201A0010B5024003420DD00F24B3
:100430001C4001231648A3400278002903D01A4328
:100440000270002010BD9A43FAE71248002912D02A
:100450000621845C9C4219D0002C02D1062900D1CF
:1004600091B20132062AF4D101200629EAD0084AC5
:1004700052189370E5E7425C9A4204D10022044B83
:100480005B189A70DDE701310629F4D10220D9E723
:10049000040900200609002030B5102599B030224B
:1004A00000210CA803F0CFFC2A000021684603F0CD
:1004B000CAFC1C22002104A803F0C5FC012422234D
:1004C0000BA80B930E9413940F9501F00DFD0028CB
:1004D00001D072B6FEE70723029000930390043B1D
:1004E00021006846019301F085FF002801D072B613
:1004F000FEE7064B08900A9004A8049302F004F863
:10050000002801D072B6FEE719B030BD200002000D
:10051000F0B514278DB000F063FAFFF7BDFF3A0085
:10052000002107A803F08FFC80216F4B09035A6953
:1005300090200A435A615A69C0050A4080210392FB
:10054000039A5A69C9030A435A615A6900240A4046
:1005500080210492049A5A6989020A435A615A69AD
:1005600001260A4080210592059A5A69C9020A4368
:100570005A615B6901220B400693ED21069B00F056
:1005800077FBE02359481B0207A9079308940996B3
:1005900000F0AAFA564807A907960894099600F0B1
:1005A000A3FA9020ED2307A9C005079308960994A4
:1005B0000A9400F099FA4F4807A9079608940994FD
:1005C00000F092FA4C4B4B4807A907930894099600
:1005D00000F08AFAC02390209B0007A9C00507936A
:1005E0000894099600F080FA80239020DB0007A988
:1005F000C00507930894099400F076FA3F4D404BEC
:1006000028002B603F4BAC606B60EE602C616C612E
:10061000AC61EC612C6200F05BFC0100A04201D0F7
:1006200072B6FEE7280000F083FD011E01D072B60D
:10063000FEE7280000F0A2FD041E01D072B6FEE71E
:1006400003F046FA304B1800009302F062FE2F4D83
:100650002F4B01902B6030236B60FA2328009B0006
:10066000AC60EB602C61AC6102F072F8061E01D048
:1006700072B6FEE70100082207A803F0E4FB254C50
:10068000254B20002360254BA6606360E760A661D0
:1006900002F05EF8002801D072B6FEE707900890DD
:1006A00007A9200002F07CF8002801D072B6FEE70E
:1006B000380000F0B7F9FFF7CFFD280001F0C8FFC0
:1006C000200001F0C5FF164C2368002BFCD0082247
:1006D0001449009802F008FE23680198013B23604A
:1006E00000F0A0F9EFE7C046001002400008004803
:1006F0000014004800040048FEFC00009C09002093
:10070000005400400A021000FC0900200C090020DF
:1007100000200040540900200014004080BB00006D
:10072000380100200409002072B6FEE701210A4BBF
:1007300082B09A690A439A619A690A4080210092BC
:10074000009ADA6949050A43DA61DB690B400193D3
:10075000019B02B07047C0460010024010B5040073
:1007600088B01422002103A803F06DFB124B22680D
:100770009A421FD18022114CD20263691048134360
:100780006361636903A913400193019BC0239B002C
:100790000393122304930F3B0693023B079300F04D
:1007A000A3F98022E36992031343E361E3691340F1
:1007B0000293029B08B010BD00540040001002409C
:1007C0000004004807B50368144A934211D1202160
:1007D000134B1220DA690A43DA61DB6900220B400D
:1007E00000931D39009B00F02FF9122000F056F9FC
:1007F00007BD0C4A9342FBD18021094B4900DA69BD
:1008000013200A43DA61DB6900220B400193FF39B0
:10081000019B00F019F91320E8E7C04600140040DE
:100820000010024000200040FEE7FEE770477047DE
:1008300010B500F0E5F810BDF8B5FFF787FDFFF73C
:10084000C7FDFFF761FD00230C26E4241F000A4DBD
:1008500020000021584332004A431218AA180131DF
:1008600057601329F7D10133062BF1D10222034B34
:1008700052421B681A61F8BDAC03002054090020E5
:10088000F7B50024234EB188306800F0EBF9E4217D
:100890000C23214D63432F68204A79435B189958F4
:1008A0000191814216D10121D0184160019948423D
:1008B000414113207843995019490918085D0028CF
:1008C00008D09958FFF7ACFD002803D1154A1368EA
:1008D0000133136001340836132CD4D12B68124C29
:1008E000DB00E21891881859012200F0C1F92A684A
:1008F000531C052A00D100232B60DB00E2189188ED
:10090000E058002200F0B4F90222084B52421B6862
:100910001A61F7BDEC420008F0090020AC0300208A
:10092000B83E000838010020BC4200080C09002035
:1009300010B5024800F0D8FC10BDC046D40E00200F
:10094000704700000D488546FFF7FAFF0C480D4937
:100950000D4A002302E0D458C4500433C4188C421A
:10096000F9D30A4A0A4C002301E013600432A24280
:10097000FBD303F071FAFFF7CBFDFEE70040002048
:10098000000000201C010020F04300081C01002092
:10099000C8110020FEE7000070B50500FA200D4BDD
:1009A00080001978FFF7CCFB0B4C01002068FFF7A3
:1009B000C7FB00F07FF804000120002C09D1032DB3
:1009C00007D802382200290000F03EF82000034B2F
:1009D0001D6070BD04000020000000200800002001
:1009E0001023064A10B5116803200B431360FFF76C
:1009F000D3FFFFF79BFE002010BDC0460020024041
:100A0000034A044B11681B785B1813607047C0469B
:100A1000F409002004000020014B18687047C0460C
:100A2000F409002070B50400FFF7F6FF0500631C11
:100A300002D0044B1B78E418FFF7EEFF401BA042E6
:100A4000FAD370BD0400002010B5FF2403220B0070
:100A500021000240D20091409B012340C9439340B2
:100A600000280ADBC0240B4A800880008018A400FC
:100A700002590A401343035110BD0F221040083899
:100A8000054A800880008018C26911401943C1617D
:100A9000F2E7C04600E100E000ED00E0002805DBE1
:100AA0001F2318401E3B8340014A13607047C04615
:100AB00000E100E08022431E5204012093420DD247
:100AC000C021074A07485360036A09061B021B0A34
:100AD0000B43036200200723906013607047C046F9
:100AE00010E000E000ED00E00023F0B587B00A68F8
:100AF0001400DC4001D107B0F0BD012514009D4079
:100B00002C4000942A4200D19CE04A685F00944641
:100B10000322644622400324BC40E4430194541E53
:100B2000012C2ED88668019C2640CC68BC403443FA
:100B3000846044680126AC4325006446240934409F
:100B40009C402C434460C568019C25408C68BC4097
:100B50002C43C460022A16D107250F261D40AD0084
:100B6000AE40DC08A40004190294246A039626000F
:100B7000039CA64334000E69AE402643029C2662C5
:100B800001E0032ADFD1BA400468019D25402A43D1
:100B9000C02402606246A402224253D001252A4AA0
:100BA00090279469FF052C43946192699C082A4020
:100BB0000592059A254AA400A4180F2202351D406B
:100BC000AD00AA40A66896430022B84210D0204F3C
:100BD0000132B8420CD01F4F0132B84208D01E4F2C
:100BE0000132B84204D01D4A8218571EBA4104325D
:100BF000AA4067463243A260194A009C9668009D4D
:100C0000E4433543FF0201D4350025406746956033
:100C1000D668009D3543BF0201D4350025406746A4
:100C2000D5605668009D3543BF0301D4350025408B
:100C3000674655601568009E2E43FF0301D425408A
:100C40002E001660013352E7001002400000014000
:100C50000004004800080048000C004800F0FFB7FE
:100C60000004014000690840431E9841C0B270472B
:100C7000002A01D0816170478162FCE703689A69AC
:100C8000920701D500229A6201229969114202D18C
:100C900099690A439A61704730B5039C0068234301
:100CA000120489051A43890D054B45680A43640DF2
:100CB000234352009D4352082A43426030BDC04640
:100CC000FF63FF03F7B5150002680E00916910235A
:100CD0000F0004001F40002019420DD00700D3610F
:100CE0000190236820219A690A425FD1002F31D0F8
:100CF00004270120019B1F43802225685200AB6915
:100D0000134202D00120EA6107438022D20013423D
:100D100003D0082101200F43EA6180229200134290
:100D200049D00223EA611F432000FFF7A7FF6B6849
:100D3000224A012013406B60636C20223B436364B2
:100D4000230041331A7022000023423240341370D2
:100D5000237032E0721CC5D0FFF75EFE401BB0422C
:100D600001D8002EBDD12200236842325868117884
:100D70009A69C9B212040BD58022D201104207D160
:100D8000202905D059680A435A60FFF745FE05003F
:100D9000202223689B691342A3D1FFF73DFE401B2D
:100DA0001928F5D92023012701939AE7002F9FD115
:100DB0002022DA619CE70028B6D1FEBD00E800FEE3
:100DC000F8B504000D001600022723689B693B421A
:100DD00001D0002021E0320029002000FFF772FF3F
:100DE000002819D16B1CF0D0FFF716FE801BA8421B
:100DF00001D8002DE9D12368996902230A001A401D
:100E00001942E2D12021636C0B4363642300403418
:100E1000413319705A7022700120F8BDF8B50400F2
:100E20000D0017001E00226893692B405B1B59427E
:100E30004B41BB4201D000201FE0731CF4D0FFF7F0
:100E4000EBFD069BC01AB04201D8002EEBD12368FF
:100E50009B692B405B1B5A425341BB42E3D120228A
:100E6000636C012013436364230041331A70220032
:100E700000234232403413702370F8BDF8B50400EB
:100E80000E001700202523689B692B4201D000200B
:100E90001DE03A0031002000FFF714FF002815D1B3
:100EA000FFF7BAFDC01BB04201D8002EEBD123687A
:100EB0009B691A002A402B42E5D1636C2B43636483
:100EC0002300403441331D705A7022700120F8BD58
:100ED00070B504000120002C3FD0250041352B784F
:100EE000DAB2002B05D12300403320001A70FFF73F
:100EF00035FC242301212B702368E0681A68A6685A
:100F00008A431A601A4962680A401A619A68194944
:100F10000A409A60012821D18022120232439A604D
:100F20005868154A02435A60DA6800200A40DA60BD
:100F3000616922690A43A16909020A43DA60216AE8
:100F4000E2690A431A60012219680A431A602023E1
:100F500060642B7020634234207070BD84221202C2
:100F600032439A600228DBD1802212015A60D7E70F
:100F7000FFFFFFF0FF7FFFFF00800002F0B50700DA
:100F800087B003930CAB029204CB41371B880492C9
:100F900005933B7804000E000220202B08D1002A84
:100FA00002D0059B002B05D180239B0063640120A8
:100FB00007B0F0BD230040331A780220012AF7D091
:100FC00001221A70FFF728FD8021050000901923E7
:100FD000012220000902FFF721FF0028E7D1212389
:100FE0003B7027001F3342373B70049B6064636291
:100FF000059B606363856B461A7B4B4B3100009306
:10100000802320005B04FFF747FE2A0020000E9992
:10101000FFF7D6FE002829D1039A2368012A16D1AA
:101020006A46127A9A620022802120000E9B009567
:10103000FFF7F4FE002819D1638DFF2B1AD8802307
:10104000628D9B0492B22285D2B2009017E0029A80
:101050002000120A9A620E992A00FFF7B1FE0028BA
:1010600004D16B4622681B7A9362DCE7002340348C
:1010700023709CE7FF22802322855B0400903100CF
:101080002000FFF709FE2A0020000E99FFF798FEC6
:10109000002800D08BE7636A2268197801339162D7
:1010A0006362638D228D013B9BB26385013A638D40
:1010B00092B22285002B16D0002A14D18021200064
:1010C0000E9B0095FFF7AAFE002800D06FE7638D06
:1010D000FF2B21D9FF22802322855B040090310061
:1010E0002000FFF7D9FD638D002BCCD12A00200012
:1010F0000E99FFF7C3FE002800D058E7202123688F
:101100000A4DD9615A682A405A602300403441335D
:101110001970387020704BE78023628D9B0492B267
:101120002285D2B20090DAE70020008000E800FEBD
:10113000F0B504004134227803000F000220D6B23B
:10114000202A18D11D0040352A78012A13D02422E4
:1011500022701B68233A196807489143196019687F
:1011600001400020196019683943196019680A4361
:101170001A6026702870F0BDFFEFFFFF0200F0B587
:10118000413214780300E5B20220202C17D11C0054
:1011900040342678012E12D0223010701B6823387C
:1011A0001E68074F86431E601E6809023E40314399
:1011B0001960196808431860002015702070F0BD90
:1011C000FFF0FFFFF0B5040087B00120002C30D005
:1011D000314D635DDAB2002B05D1AA239B002000BC
:1011E000E25402F01BFD03236355206801F014FB59
:1011F000002301271900606883421CD3002228269F
:10120000110090422FD823006A46103343CB43C2CB
:1012100003CB03C2A268E3686168206801F006FBA3
:101220000022631DDA7701236355E369012B2ED079
:10123000002007B0F0BD29262822B4465A43A21840
:101240009444664637702826B44694446646337004
:101250002B26B4469444664601333170DBB2916369
:10126000D1631164C8E733005343E3181F006A37A2
:10127000FF373970013F3A70F97081336C3FF9677D
:10128000FF33803701323960D2B21960B9E72000EC
:1012900000F015FECCE7C046A902000070B5AA25F3
:1012A000AD00435D04000220012B09D001236355EA
:1012B000206801F0A7FA206801F0B5FC0020605515
:1012C00070BD70B5AA25AD00435D04000220012B5E
:1012D00008D001236355631DD977206801F09CFC79
:1012E0000020605570BD0000F0B5040085B00068B6
:1012F00001F0A1FC802305001B021D40184201D112
:1013000000F02AFC2068821DD38F1BB2002B01DB6A
:1013100005B0F0BD0F21D38F194001910F219AB272
:101320000B4200D0C3E01023110019401A422AD109
:101330000388D24A13408022120213430380030021
:1013400050331A88230028331B78DB00C3189B18FE
:10135000CB4A20009B181B88E26B9B059B0D6364A6
:10136000D318E36302F08CFC631DDA7F002AC9D036
:10137000206C22680028C5D18025D97F4C322943B2
:101380001180D877BEE7028880211600090193B248
:101390000E400A4222D0030050331A88B4235B0067
:1013A000E35CAC21DB00C3189B18B64A89009B188C
:1013B00022001B8869329B059B0DFF32D3616118A7
:1013C000D28801F0A5FE2168AF4B0A8820001A40A0
:1013D000802313430B8002F03DFC93E71BB2002BEC
:1013E00000DB8FE70288A84B25001A4080231343B7
:1013F0000380030050331A88B4235B00E35C693533
:10140000DB00C3189B189F4AFF359B181B889B0560
:101410009B0DEB610DD0696900290AD0EA8801F0C3
:1014200077FE6B69EA6931009B1820006B6102F05E
:101430001AFC21680A8893B2120500D562E7C0221F
:1014400092011340934200D15CE70B0050331A889D
:101450008C4BCB189B181A889205920D1A802A691A
:101460003E2A0CD91F2550092A4055426A41801A4C
:101470001A8880021043854A024392B205E0002A8E
:101480000ED180201A88000202431A800A88804BFD
:101490001A40C0239B0153407E4A13430B8031E71F
:1014A000012550082A40801880021A88E4E7019B31
:1014B0009F00C219138899B21BB20291002B00DB66
:1014C0009CE0138870490B4080210B431380282334
:1014D000019A5343E3181A001D007532FF32127847
:1014E0006935FF35002A15D10200503211882A785B
:1014F000D200521863491218521812889205950D9D
:10150000002A59D01A006F327D33FF32FF331900A1
:1015100012884DE019006C31FF3109782A780229D0
:1015200000D0EFE08026F601B4466546029E813386
:101530002E4003960600503600966646029DFF3305
:101540001968354200D1ABE0009D2E88D500861980
:1015500076194B4D76193588AD05AD0D8D420DD9F7
:1015600000211960910041180E88494B1E408023CC
:101570009B017340474E33430B8002E0491B1960C7
:10158000F0D0029B5B0607D592008218138842496F
:101590000B4042490B431380002D0DD02823019AA4
:1015A0005343E1180A007132FF327D311288FF3156
:1015B0002B00096801F0ACFD2823019959436218FA
:1015C00016008536FF363068083E4019B060306836
:1015D0004019306010008130FF300068002804D0CE
:1015E000FC32D26F954200D3B6E0019A20005343FB
:1015F000E3186933FF33197802F035FB8022029B30
:101600002068134200D17DE6C21913881B49019D51
:101610000B401E490B439BB2138028235D43651981
:101620002A002B321178EA18012900D0C3E00023E8
:1016300029002B6434310978994200D19FE0402180
:10164000029E029F0E4029350F4200D19CE029786E
:10165000994200D087E00300117850331D88084B71
:10166000C900C3185B19C9180B8808489B059B0D56
:101670000B800B8803439BB280E0C0460F8FFFFFB7
:1016800002040000060400008F0F00000080FFFF2E
:101690008FBFFFFF808000008F8FFFFFC0800000A2
:1016A000009D2E88D50086197619C44D7619358887
:1016B000AD05AD0D8D420DD903991960910041180A
:1016C0000E88BF4B1E4080239B017340BD4E3343A9
:1016D0000B8002E0491B1960F0D0029B5B0607D427
:1016E000920082181388B8490B40B8490B43138005
:1016F000002D00D160E72823019A5343E1180A0026
:10170000733251E7920082181688AF493140AF4ECC
:10171000314311802A78910041180D880100503121
:101720000988D200521812186D040AD5A849521817
:1017300012889205950D002A00D13DE71A007132FA
:10174000E2E69E49521812889205950D002A00D1B2
:1017500032E71A007332D7E66931FF312068611829
:1017600001F082FA4AE7012909D10100984E50316F
:101770000D8811788019C900401909180B8011785B
:10178000200002F07DFABDE52B78002B06D1030086
:10179000117850331D88C900884B62E7012BEED1C8
:1017A0000300864D5033198813784019DB00401828
:1017B0001B181E80E3E71278029F0392D20000926A
:1017C0008022029952002E6C174011421ED1020055
:1017D00050320099128852187D49121852181288F6
:1017E0009205920DB24202D303992F64C8E7E96BC8
:1017F000B61A8918E963696C2E648A186A64019ABA
:1018000001325343E11801F02FFA7BE54022030037
:10181000029F029917405033114200D1DEE06C491B
:101820001A8847180099BA18525A9205920D944690
:101830000022B44501D26246B21A282601994E43CD
:10184000A619326480260299F60131400E00002A62
:101850004AD129218C46AC446146097800292ED111
:101860001A880099BA18521817885A49BF05BF0D2F
:10187000178017880F43BFB21780504A1B88801803
:10188000C018009BC01803889B059B0D038003882C
:101890000B439BB203802000039902F0F1F9002E64
:1018A00000D1DAE02B0028331B7822689B00D21885
:1018B000138845490B4048490B431380CDE00B008A
:1018C0000129E8D14F339C46844463461B88009924
:1018D000FB185B181A80634638491B884018C018EB
:1018E000009BC0180280D6E7002908D0039B99000E
:1018F00041180A88344B1340374A13430B8028237E
:10190000019A5343E3181E004C363278012A00D066
:10191000A3E0DA6B996C62440292DA635A6C624417
:101920005A649A6B914229D3891A99642B002933FE
:10193000197893B2002936D1010050310988009EF0
:10194000791889190E88B605B60D0E803E2A1FD962
:101950001F2756093A4057427A41B61A0A88B602FA
:1019600032431C4E324392B20A80282201994A43E4
:10197000A218128E029901F062F96EE0002902D1DC
:1019800062463170D2E7002232709A640A00CDE7D5
:10199000002A01D10A88E4E7012756083A40B61820
:1019A000B6020A88DEE70129DFD102005032128830
:1019B000BF18009ABF183B80D7E7C0460604000056
:1019C0008FBFFFFF808000008F8FFFFFC08000006F
:1019D000020400000080FFFF80C00000A8491A88B0
:1019E0008C46009984446244525A9205920DB24248
:1019F00000D8B71A282601994E43A61937648026C5
:101A00000299F60131400E00002F40D12A00293200
:101A10001278002A2BD19B491A8840188018009A06
:101A20009949801802889205920D028002880A4323
:101A300092B202801B88009A63449B181A88920510
:101A4000920D1A801A880A4392B21A8020000399D4
:101A500002F016F9002E00D124E728352B782168F2
:101A60009B00C9180A88894B1A40302313E5012AC4
:101A7000ECD10300834950331A8840188018009A2B
:101A8000801807801B8863449B181F80DEE70029AD
:101A900008D1039B990041180E887D4B33407D4E41
:101AA00033430B80282301994B43E3181F004C3725
:101AB00039780129D1D1D96B9E6C89180291D963EB
:101AC000596C89185964996B8E4226D3761A9E6494
:101AD0002B0029331A788BB2002A33D102005032FE
:101AE0001288009E624492191688B605B60D1680BB
:101AF0003E291CD91F274E0939404F427941761A99
:101B00001188B6023143604E314389B211802822D8
:101B100001994A43A218528E2CE7002E02D11100DF
:101B20003E70D5E7002231009A643A70D0E7002970
:101B300001D11188E7E701274E0839407618B6022F
:101B40001188E1E7012AE2D102005032128800999F
:101B5000624452181380DAE743050ED523684E49D4
:101B60000633DA8F20000A40DA8702F09BF829005A
:101B70002000FFF7A6FBFFF7CBFB430407D5236844
:101B800046490633DA8F0A40DA87FFF7C1FB802324
:101B900001009B011940184204D0236840490633D4
:101BA000DA8FF0E7C3041AD5042023680233DA8FF2
:101BB0008243DA87DA8F00188243DA87B8239B00E2
:101BC000E25C012A03D12000E15400F08CF92000EE
:101BD00002F08CF8236833490633DA8FD3E7030524
:101BE00013D5082123689A1CD08F06330143D1876F
:101BF000D98F2D480140D9870423D18F0B43D38738
:101C0000200002F061F8FFF783FB8025284221D0F5
:101C1000B82023688000991DCA8FAA43CA87225C16
:101C2000002AEDD1991CCD8F04322A43CA8708229D
:101C3000CD8F54332A43CA8701213C2221541B886B
:101C400020009B081340B9229200A35000F04BF9EA
:101C5000FFF75EFB83050AD5236814490633DA8F44
:101C600020000A40DA8702F016F8FFF751FBC005A2
:101C700001D4FFF74DFB23680D490633DA8F82E765
:101C800006040000020400000080FFFFBF8FFFFF7A
:101C90008F8FFFFF80C00000FFFBFFFFFFBFFFFF34
:101CA000FFDFFFFFFFEFFFFFFFF7FFFFFFFDFFFF7E
:101CB000FFFEFFFF70B505000720084049B2282449
:101CC000002919DA411C6143273C69184C700870DF
:101CD0000A61CB70022B01D100230B71AA24A4004E
:101CE0002B5D0220012B06D001232B55286800F024
:101CF000B1FD0020285570BD4443210000262C1959
:101D000069316A34FF31FF3469182670DFE7072232
:101D10000A4049B270B528230400002913DA511C87
:101D20005943273B41184B70AA250A70AD00635DEB
:101D30000220012B06D001236355206800F098FE95
:101D40000020605570BD534319006931FF31C3183D
:101D5000411800206A33FF331870E5E770B5072497
:101D6000214021344C4305192E007D36FF36326068
:101D70002A008132FF3213602B0000268533FF33A7
:101D8000693569341E60FF351B3BFF341E702970B6
:101D90000119006800F068FF300070BD70B528269A
:101DA0000724214034004C4304192500E26301223A
:101DB0004C3523642A70A36423000025293365640D
:101DC0001A708B187343A4192170C118006800F0B1
:101DD0004BFF280070BD0722436870B50A4004001D
:101DE00001209A4217D848B22823002814DA511C3F
:101DF0005943273B61184B700123AA258B700A7049
:101E0000AD00625D02209A4205D06355206800F063
:101E1000A9FE0020605570BD4B4319000020E31857
:101E200069316A33FF31FF3361181870E4E70F231B
:101E3000426870B50B4004000120934219D8072274
:101E40000A4049B22823002914DA111859436118AD
:101E500048700025AA268D700A70B600A35D022086
:101E6000012B06D00123A355206800F09BFE28001B
:101E7000A55570BD534319000020E31869316A333A
:101E8000FF31FF3361181870E3E710B50C0021062D
:101E90000CD507212140282401316143401899B213
:101EA000002A08D10273C180002010BD282161439F
:101EB0006931FF31F2E7012283600273F4E70368BE
:101EC0000200BA20012110B58000B8241150002072
:101ED000A400105554331A8811430222198019881E
:101EE0000A431A8010BD7047F0B5040085B0002881
:101EF00002D1012005B0F0BD0368DB0733D42368AD
:101F00009B0700D587E023681B0700D5C8E023683E
:101F10005B0700D5EBE02368DB061AD56269042372
:101F2000B94D012A00D054E1696B02270B436B6362
:101F30006B6B1A436A63FEF76FFD06006B6B3B42E7
:101F400000D13FE1F8216A6BA3698A43DB001343A8
:101F50006B6323689B0600D562E1636A002B00D0A7
:101F6000A1E10020C6E70C22A74D6B681340042BAB
:101F70000BD06B681340082B0ED1C0226B68520245
:101F8000134080225202934206D12B689B03B6D5A0
:101F90006368002BB3D1ACE76368012B13D18023B6
:101FA0002A685B0213432B60FEF736FD802706008C
:101FB000BF022B683B42A2D1FEF72EFD801B642896
:101FC000F7D9032096E7002B15D12B688F4A80277D
:101FD00013402B602B688E4ABF0213402B60FEF724
:101FE0001BFD06002B683B4289D0FEF715FD801BC8
:101FF0006428F7D9E5E7052B05D180232A68DB02A1
:1020000013432B60CBE72B68804A13402B602B686F
:102010007F4A1340C7E70C227B4D6B6813420BD0FD
:102020006B681340082B16D1C0226B685202134014
:102030008022120293420ED12B689B0703D5E368DE
:10204000012B00D055E7F8212A6823698A43DB0079
:1020500013432B6057E7E2680123002A0FD02A6858
:10206000022713432B60FEF7D7FC06002B683B4288
:10207000E9D1FEF7D1FC801B0228F7D9A1E72A6835
:1020800002279A432A60FEF7C7FC06002B683B42F2
:1020900000D138E7FEF7C0FC801B0228F6D990E794
:1020A000E2690123584D002A10D06A6A02271343BF
:1020B0006B62FEF7B1FC06006B6A3B4200D026E77C
:1020C000FEF7AAFC801B0228F6D97AE76A6A022783
:1020D0009A436A62FEF7A0FC06006B6A3B4200D19D
:1020E00015E7FEF799FC801B0228F6D969E78022E4
:1020F0000021454D5205EB690091134208D1EB696F
:102100001343EB61EB6913400393039B012300939B
:102110008027404E7F0033683B4215D0A368012BD7
:1021200022D12A6A13432B62FEF776FC02270600AF
:102130002B6A3B423FD0009B012B00D0EBE6EB69C2
:10214000354A1340EB61E6E633683B433360FEF704
:1021500063FC019033683B42E0D1FEF75DFC019BDC
:10216000C01A6428F6D92CE70122002B14D12B6A5F
:10217000022793432B622B6A033293432B62FEF7B1
:102180004BFC06002B6A3B42D5D0FEF745FC234BA7
:10219000801B9842F6D914E7052B05D1296A013B2B
:1021A0000B432B622B6ABDE72B6A934304222B62FD
:1021B0002B6A9343B7E7FEF72FFC184B801B98421E
:1021C000B6D9FEE6FEF728FC801B022800D8B5E64B
:1021D000F7E6053203D16A6B9A436A63B2E66A6B2B
:1021E0000227134301226B636B6B93436B63FEF710
:1021F00013FC06006B6B3B4200D1AAE6FEF70CFC19
:10220000801B0228F6D9DCE600100240FFFFFEFF2B
:10221000FFFFFBFF00700040FFFFFFEF881300008F
:102220000C22554D6B681340934209D06B681340E4
:10223000082B0ED1C0226B6852021340934208D182
:102240006B6B9B0300D488E6236A012B00D050E619
:1022500083E6236A002B13D080236A6B5B0213434F
:102260006B63FEF7D9FB80270600BF026B6B3B4216
:1022700000D072E6FEF7D0FB801B0228F6D9A0E65C
:102280006B6B3E4A802713406B63FEF7C5FB06006D
:10229000BF026B6B3B4200D15FE6FEF7BDFB801BCC
:1022A0000228F6D98DE60C21334D6A680A40082AC7
:1022B00047D0334A022B32D12B68802713402B6042
:1022C000FEF7AAFB0600BF042B683B4221D10F2278
:1022D000EB6A80269343226BB6041343EB62A16A38
:1022E000E36A6A680B4327490A4013436B60802303
:1022F0002A685B0413432B60FEF78EFB04002B68F7
:10230000334200D02DE6FEF787FB001B0228F6D9EA
:1023100057E6FEF781FB801B0228D5D951E62B68D2
:10232000802613402B60FEF777FB0400B6042B6871
:10233000334200D115E6FEF76FFB001B0228F6D9E9
:102340003FE6012B00D1D4E5C0226868A16A5202A1
:10235000EB6A02408A4200D0CBE50F221340226B89
:10236000934200D0C5E5F0239B031840E36AC01AEE
:10237000431E9841C0B2BDE500100240FFFFFEFFC2
:10238000FFFFFFFEFF7FC2FF0C2070B5134D6B688F
:102390001840082808D00C3843425841104B40429E
:1023A0001840104BC01870BD0F200F499A0C024006
:1023B0008C5CEA6A0D490240895CC022802052028E
:1023C00013404002834201D1064802E09342FBD110
:1023D0000748FDF7B5FE6043E5E7C0460010024040
:1023E000005A620200127A00A443000894430008D5
:1023F000006CDC02F7B504000F00002801D10120B9
:10240000FEBD01223A4D2B6813408B421CD322683B
:10241000930722D4D2072FD401232A681A40BA4244
:1024200057D82368334D5B075AD4FFF7ADFF6B686D
:10243000314A1B061B0FD35C3049D840086003208B
:10244000FEF7AAFA0020DBE72B6893430B432B60CF
:102450002B6813408B42D2D1D9E72649530704D5C4
:10246000E0234868DB0003434B60F0204B68834364
:10247000A06803434B60CDE762681E4E012A03D17A
:1024800033689B0305D4BAE7022A1AD133689B014B
:10249000B5D5032173688B4313437360FEF7BCFA11
:1024A00001900C2372681A4063689B009A42B3D073
:1024B000FEF7B2FA019BC01A114B9842F1D90320E2
:1024C0009EE7032A01D1736BDBE733689B07E0D4F7
:1024D00095E72A689A432A602A681A42A1D08EE7B3
:1024E0006B68084A1340E26813436B609DE7C0467F
:1024F0000020024000100240844300080000002039
:1025000088130000FFF8FFFFF0B50368050085B0F1
:10251000DB032BD580220021464C5205E369009154
:10252000134208D1E3691343E361E3691340039362
:10253000039B0123009380273F4E7F0033683B427B
:102540003DD0216AC022080092006B683B4E1040CB
:10255000114246D1236A6A68334013432362009BC9
:10256000012B03D1E369364A1340E3612B68DA0794
:1025700006D503202F490A6B8243A86802430A63E9
:102580009A0706D52B492F480A6B0240E868024398
:102590000A639A0606D5102026490A6B82432869E9
:1025A00002430A639A0306D5802022490A6B8243BC
:1025B000A86902430A635B0533D400200FE0336847
:1025C0003B433360FEF728FA019033683B42B8D1B1
:1025D000FEF722FA019BC01A6428F6D9032005B041
:1025E000F0BD13408342B5D08022236A206A1900CF
:1025F000520202432262226A1348314002402262A0
:102600002162DB07A6D5FEF707FA07000222236A3C
:1026100013429FD1FEF700FA0C4BC01B9842F5D92C
:10262000DCE74021034A136B8B4369690B43136357
:10263000C3E7C0460010024000700040FFFCFFFFEF
:10264000FFFFFFEFFFFFFCFFFFFFFEFF881300000F
:1026500001000300012010B53D310C78E2B2844244
:102660001CD1001808701B68D9681143D9600D4946
:102670008B4209D08021C9058B4205D00A498B4283
:1026800002D00A498B420AD107219A680A40062AD9
:1026900003D0012219680A431A60002010BD19688E
:1026A000F9E7C046002C0140000400400040014012
:1026B000204A10B50368904206D08024E405A04269
:1026C00002D01D4CA0420CD17024A3434C6823437C
:1026D000904212D08024E405A0420ED0164CA042B5
:1026E0000BD0164CA04208D0154CA04205D0154C7A
:1026F000A04202D0144CA04203D1144C1C40CB6821
:1027000023438024A3434C69234303608B68C36243
:102710000B688362904208D0094B984205D0094B60
:10272000984202D0084B984201D10B690363012300
:10273000436110BD002C0140000400400020004017
:10274000004001400044014000480140FFFCFFFF01
:1027500070B504000120002C21D025003D352B78D8
:10276000DAB2002B05D123003C3320001A70FEF7AB
:1027700029F802232B702068211DFFF799FF220002
:1027800001230020463213704534083A1370537009
:102790009370D37013715371937123702B7070BD4C
:1027A00070B5040002223C34257803001000012D8E
:1027B00020D01D0070263D352A701B6858689A6825
:1027C000B0430E68304358600B48834209D08020E4
:1027D000C005834205D00948834202D0084883429D
:1027E00004D18020496882430A439A600123002073
:1027F0002B70207070BDC046002C014000040040CA
:1028000000400140821D03000020D087014A0233AE
:10281000DA87704780BFFFFF0230C38F024A134040
:10282000C38700207047C0467F40000084B010B5C9
:102830000400049205930122831C0020DA87D887C4
:10284000A31D5034D8870391208010BC08BC04B06D
:1028500018470000F7B50E78794AB300C3181C88F2
:10286000CF781440012205000092032F08D83800C9
:10287000FDF752FC02423F3C802292001443009735
:10288000704A1443A4B21C8018886F4C2040304317
:10289000104380B21880F0008446087BAC44503569
:1028A0000195002800D068E0CD8848786D086D005B
:1028B000002823D080200199C000098861440918AC
:1028C0000D801988490604D5198821405F4C2143A1
:1028D00019805F4D012F00D1ABE020211C882C40D6
:1028E00061400A4392B200981A80FEBDC022D20015
:1028F000144300220092C3E78022F8E70198096997
:102900000788544867443F1801983D80058852481D
:1029100065442D182F88BF05BF0D2F803E290DD986
:102920001F204F0901400800414241417F1A298878
:10293000BF020F434949394389B205E0002915D147
:10294000802729883F02394329801988490404D502
:1029500019882140424C2143198042491C880C406F
:10296000C021002E00D080218901B9E701204F0845
:1029700001407F18BF022988DDE71D88022F3AD168
:10298000394E2540354301981D80058880200E89E9
:102990006544C00076082D18760001982E800588C1
:1029A0004E892C48654476082D1876002E8049788B
:1029B000274E8C46802160462A4DC90100281FD130
:1029C0001F880F4204D01988254F214039431980B0
:1029D0001988490604D5198821401C4C21431980C7
:1029E000C0211C8889012C406140114389B21980A3
:1029F0001988314075E71D4E35401543ADB2C2E729
:102A00001888084204D019881548214001431980CC
:102A10001988490604D5198821400C4C2143198096
:102A2000012F09D020211C8834406140114389B214
:102A300019801988294054E719883140F6E7C046C3
:102A40008F89FFFF8080FFFF8F8FFFFFC080000016
:102A5000BF8FFFFF04040000060400000080FFFF9A
:102A600080C000008FBFFFFF808100008F8EFFFFBE
:102A7000F0B50B784A78097B9B00C018314B0029D0
:102A80001AD1002A0CD00288520605D502882E4998
:102A90000A402E490A43028002882D490A402FE04D
:102AA0000288520405D5028827490A4029490A4369
:102AB000028002882849F1E78027234E244D2649C9
:102AC000FF01002A21D102883A4204D00288214C19
:102AD0003240224302800288204C520604D50288EC
:102AE0003240224392B20280028832401443A4B2A0
:102AF000048002880A401A4392B2028002882A4067
:102B000013439BB203800020F0BD0288144C3A426C
:102B100004D002883240224392B2028002885206D8
:102B200004D50288094F32403A430280028832407D
:102B30001443A4B2048002882A401A4392B202804D
:102B40000288ABE78080FFFF8F8FFFFFC08000000F
:102B5000BF8FFFFF80C000008FBFFFFFC080FFFF5F
:102B600080C0FFFF0B780C4A9B00C0184B7801888F
:102B7000002B08D0094B194010234B4013439BB244
:102B8000038000207047064B194080235B014B40B7
:102B90001A4392B20280F4E78080FFFFBF8FFFFFED
:102BA0008FBFFFFF0B7B002B19D10B789B00C01848
:102BB0004B78002B15D003885B0605D50388104A97
:102BC0001340104A13430380CB78012B07D00E4BE0
:102BD00002881A40202353400C4A134303800020EC
:102BE000704703885B0405D50388054A1340084AEB
:102BF00013430380074B02881A40C0239B01EAE776
:102C00008F8FFFFFC0800000BF8FFFFF808000001C
:102C100080C000008FBFFFFF002902D180234C300D
:102C2000038000207047802258300388120213432B
:102C30000380002070470630C08F80B2704730B5E7
:102C400080240133E40012195B0880185B00CB1864
:102C5000401A0C188B4200D130BD4A780D78120210
:102C60002A4322800231F4E7F0B54A7805000C00CF
:102C70000B7B87B0012A00D01BE10A698F690292A1
:102C8000974200D917002A00503261690192002B47
:102C90001DD1BFB23B00E2882800FFF7D0FF019BA7
:102CA000B64A19882378AA18DB0052189B181F808F
:102CB0002378B34A9B00EB181988114030224A4010
:102CC000B0490A4392B21A80002007B0F0BD2278C2
:102CD000266A9300D2000392E078EB18022800D015
:102CE000D1E0029AB24200D3BBE01A88A648F61B94
:102CF0001040A64A104318801B8840209C4662461C
:102D0000024005926246CB1904932662BBB202428E
:102D100055D0019A128894469D4AA818039A604497
:102D20008218138062892800FFF789FF049B029AAA
:102D300063610023B24201D2F31B3E00627823623A
:102D4000B3B2002A2ED1019A8C49108822786918D2
:102D50000918D200521811888905890D11803E2E5C
:102D60000CD91F203040710946427041091A108861
:102D7000890208438749014389B205E0002E0AD140
:102D800080201188000201431180228904992800C3
:102D9000FFF755FF8CE70121700831404018800291
:102DA0001188E8E7012AF0D12A00744950321088CE
:102DB00022786918D200091852181380E5E7019AA1
:102DC000128894466D4AA818039A604482181380AA
:102DD00022892800FFF733FF049B029A6361059B59
:102DE000B24201D2F31B3E0062782362B3B2002AE2
:102DF0002AD1019A66491088227869180918D200E8
:102E0000521811888905890D11803E2E0CD91F207A
:102E10003040710946427041091A108889020843FE
:102E20005C49014389B205E0002E06D1802011885B
:102E30000002014311806289A8E7012170080E4059
:102E4000801911888002ECE7012AF4D12A00504948
:102E50005032108822786918D2000918521813804D
:102E6000E9E718884C4F474A3840104380B2188031
:102E7000019B039A1888414BEB181B189A18B3B2A0
:102E80001380228983E71888F61B019A2662168828
:102E9000BBB2400607D53E4AA818039A801982188B
:102EA0001380628973E7354AA818039A801982183B
:102EB000E6E7002B3DD18A6909698A4201D9531A94
:102EC0000A00A3612B00324950331888237869180F
:102ED0000918DB005B1819888905890D19803E2ABD
:102EE00019D91F205109024050424241891A1A88BB
:102EF00089021143274A0A4392B21A8023789B0021
:102F0000ED182A88254B1A40C0239B015340244AC0
:102F100013432B80D8E6002A04D180211A880902A5
:102F20000A43EAE7012051080240891889021A88F9
:102F3000E1E7CB78022B00D07CE0002A5FD10600CD
:102F40000E4A503633880878AA18D218C0001218D2
:102F500013889B059B0D13800B693E2B22D91F27DD
:102F60001F4039004F424F415909C91B1788019131
:102F700089020F430749394389B219E0020400006E
:102F8000BF8FFFFF8080FFFF8F8FFFFF80810000DA
:102F9000060400000080FFFF8F8EFFFF8FBFFFFF42
:102FA00080800000002B1CD1802711883F0239430C
:102FB0001180514A3188AA185218121811888905AF
:102FC000890D11803E2B13D91F2059090340584207
:102FD0004341C91A138889021943484B0B439BB2DA
:102FE0000CE001215F0819407F18BF021188C2E779
:102FF000002B18D18021138809020B431380E36949
:10300000002B00D17AE723783D499B00EB181A8802
:103010000A408A4202D0002A00D06FE739491A8854
:103020000A4039497CE7012059080340C918890240
:103030001388D3E70120834200D046E68B690969F3
:1030400000208B4201D9581A0B00A061002A00D041
:1030500054E72E002D4A503631882078AA1852188D
:10306000C000121811888905890D11803E2B0ED9D8
:103070001F271F4039004F424F415909C91B17886C
:10308000019189020F431D49394389B205E0002BA4
:103090001CD1802711883F0239431180164A31889C
:1030A000AA185218121811888905890D11803E2B13
:1030B00013D91F205909034058424341C91A1388A4
:1030C000890219430D4B0B439BB20CE001215F08B1
:1030D00019407F18BF021188D6E7002B05D1802147
:1030E000138809020B43138008E7012059080340A5
:1030F000C91889021388E6E7060400000080FFFF74
:10310000404000008F8FFFFFC080000002040000DD
:10311000F0B580255C08ED00521926000D008018DE
:10312000471AEA19002E06D1DB0703D564000019FF
:1031300003880B55F0BD1288013E92B22A70120A24
:103140006A700235EDE700002923038000487047CC
:1031500068000020AE239B00C358002018737047FE
:103160000A230380004870475000002010B5B024A7
:103170000123A4001900034A0059FEF7EFFD0020C7
:1031800010BDC0463D010020AE2273B50B00920079
:1031900081586A4604001878951D002206002A808E
:1031A0006032164010421AD0202E2BD158780238A7
:1031B000092827D8FCF7B0FF0D0E2626262626263E
:1031C00009059B780B60002076BD5B881B0A4B606D
:1031D000F9E704310122200000F043FCF3E75878BE
:1031E0000B280FD8FCF798FF060E0E0E0E0E140ECD
:1031F0000E0E2A32A7229200A25C032A02D12900D5
:10320000013AE8E72000190000F004FC0220DBE7A7
:103210005A88120A222A07D1DB881A1C412B00D9AE
:1032200041220E4992B2D6E7212AEBD1DB881A1C43
:10323000092B00D909220A4992B2CCE7A7229200B1
:10324000A25C032ADED10831023AC4E7A722920029
:10325000A25C032AD6D19B788B60B4E70C000020D7
:103260005C00002070B5AE25040000268121AD0071
:1032700000F099FD6059E662B04202D000F0E2FD34
:103280006651002070BD000070B508230322812123
:10329000040000F07CFD0123012519000322200019
:1032A00000F075FDAE261020E56200F0C7FDB60007
:1032B0002B00A05129002000044A00F0B6FDA359BC
:1032C0000220002B01D00020187370BD3D010020AA
:1032D00029230380004870476800002029230380C9
:1032E00000487047680000201300A72210B5920024
:1032F000825C032A0BD1AE2292008258147B002CF0
:1033000005D1013414730A00812100F085FD0020ED
:1033100010BD037C0A20002B00D102387047022325
:1033200010B5002813D0AD239B00C458002C01D049
:103330000024C450002902D0AC239B00C150A72315
:1033400001219B00C154027000F0E4FC002318002E
:1033500010BD03000220002903D0AD2200209200FE
:103360009950704710B500F009FD002010BDAD2345
:103370009B00C25810B50223002A04D01368984756
:10338000431E98414300180010BDAD2310B59B00AB
:10339000C3585B689847002010BD0000AA239B001B
:1033A00070B5C5180400280000F020FBA5230122F9
:1033B0009B00E250114BE25A163BE2501033E15CA5
:1033C0001F230B40012B09D0022B0CD0002B0FD157
:1033D0002900200000F01AF9002070BD290020000B
:1033E00000F04AFAF8E72900200000F06DFAF3E750
:1033F0007F232000994300F0DFFCEDE7AE020000E0
:1034000070B50400150000292ED1A5239B00C258D9
:10341000032A23D102005532FF32D3681069834258
:103420000BD91B1AD36082B2984200D99AB22900F4
:10343000200000F02CFB002070BDAD239B00E35862
:103440001B69002B06D0A7229200A25C032A01D19F
:1034500020009847200000F022FBECE7052AEAD183
:10346000C15000F0A9FCE6E7AD239B00C358022041
:103470009B69002BE0D0A7229200A25C032ADBD13B
:1034800020009847D7E7F8B50D0004001100002D83
:103490004DD1A5239B00C358022B3ED1036A466A37
:1034A000B34211D99B1B03629AB200F0E8FA2B00D9
:1034B0002A002900200000F0B8FCA8239B00E25C51
:1034C000012A31D00020F8BDC76931003800FCF76F
:1034D000BDFE0D1E0CD1BE420AD8A626B600A359C9
:1034E0009F4205D20A00200000F0C9FAA551DEE78C
:1034F000AD239B00E358DB68002B06D0A722920087
:10350000A25C032A01D1200098478021200000F00E
:1035100053FC200000F0CFFACFE704229343CCD134
:10352000802100F049FCC8E70022E254CAE7AD233D
:103530009B00C35802205B69002BC4D0A7229200D5
:10354000A25C032ABFD1290020009847BAE70022D5
:1035500070B504001100402300F019FC2300012580
:103560004026FC338021DD659E660022330020006A
:1035700000F00DFCA72300219B00A5616662E554C5
:10358000083BE15010336160E1501433E3588B4243
:1035900005D0AD239B00E35820005B6898470020CE
:1035A00070BD017400207047A7239B00C15C034AD3
:1035B00081540422C25400207047C0469D0200007E
:1035C000A7239B00C25C042A02D1024A825CC25437
:1035D000002070479D020000A72310B59B00C35C2C
:1035E000032B06D1AD239B00C358DB69002B00D011
:1035F0009847002010BD10B50400802100F0DCFBCE
:103600000021200000F0D8FB10BD000060220B78E4
:1036100073B513400D0019009218203904001142AF
:1036200012D0002B00D096E06878092800D992E0EB
:10363000FCF77CFDF0000D01910005019100830075
:1036400012009100DA00A400AD239B00C3582900AA
:103650009B689847002076BD00236A46D3806B881C
:10366000180A0138062876D8FCF756FD0417267587
:1036700075404B00AC239B00E358207C1B686A46D6
:10368000911D98476B46D988EA88002950D0002AB6
:1036900043D1200000F003FADCE7AD23227C9B003D
:1036A000E358002A06D19B6A6A46901D9847022378
:1036B0004370E7E7DB6AF7E7D8B205284BD8AC23BD
:1036C0009B00E358FCF728FD03080A0C0E105B680A
:1036D000002B40D0207CD2E79B68F9E7DB68F7E756
:1036E0001B69F5E75B69F3E79B69F1E7237C002B36
:1036F00031D1AD236A469B00E358901D5B6B984720
:10370000C0E7237C002B26D1AD236A469B00E358FB
:10371000901D1B6B98470723CAE70B1C914200D9E9
:10372000131C69469AB2CB800100200000F099F981
:10373000EB88002B00D08DE7ABE7AB88002B0AD1DC
:10374000EB88002B07D16E887F2E04D8A725AD000B
:10375000635D032B03D12000FFF74DFF7AE7444B55
:10376000F1B2E154200000F04EFB200000F097F988
:103770000223002E00D1012363556BE7A9783D4D4C
:1037800029700129E7D8A7239B00E25C022A09D00F
:10379000032A15D02000FFF72EFF20002978FFF71D
:1037A000F4FD57E7002900D173E70121032261608E
:1037B000E2542000FFF7DBFD022800D069E7CAE7EA
:1037C000002906D102222000E2546160FFF7DDFDEE
:1037D0005FE76168012900D15BE7C9B22000FFF70C
:1037E000D4FD29786160E4E7EA88012AB3D1A723F0
:1037F0009B00E35C022B06D8002BACD000232100F9
:10380000A360083102E0211D032BA4D1200000F0A9
:1038100028F91FE7A7239B00E35C013B022B9AD802
:10382000EB88022B97D1A9239B00E2580123002AA1
:1038300000D0023321000222E3600C31E6E76B88FE
:10384000012B00D006E7A9229200A35021E7A7236D
:103850009B00E35C013B022B00D97CE76B88012BCA
:1038600000D0F7E6A92300229B00E25011E7C046F2
:103870009E020000F809002060230A7870B513400A
:1038800004000D00520601D5402B19D1A7239B003F
:10389000E35C013B022B13D82B79012B10D8AD230D
:1038A0009B00E35829009B6820009847EB88002B79
:1038B00004D1002802D1200000F0F1F8002070BDF2
:1038C0002000FFF798FEF9E770B50A7804000B00B6
:1038D000888860210A4015004918203D0D4226D0F5
:1038E000002A34D15A78C1B2012A43D0032A27D002
:1038F000002A2CD1A7239B00E35C022B54D0032B7E
:1039000025D10F2314220B405343E31800065BD547
:103910009B69002B1BD07F230B4001335343E518D9
:103920004B065CD10023022229002B6048E0AD2227
:103930009200A2581900200092689047002070BDA4
:10394000A7229200A25C022A24D0032A03D02000DE
:10395000FFF751FEF2E75A88002A07D14A0605D040
:10396000DB88002B02D1200000F026FA200000F0B6
:1039700096F8E3E7A7229200A25C022A0AD0032A63
:10398000E5D15B88002BD9D14B06EFD0200000F0A9
:103990001CFAEBE74B06DAD0200000F00DFA80218C
:1039A000200000F009FAC9E74906D0D121005531BD
:1039B000FF31000601D54139FF39002302220B6097
:1039C000200000F04EF8B9E7FC33DB6D002BBED0D1
:1039D0007F230B405A435532FF32A518A0E7200041
:1039E00000F0FCF900289DD001239CE70B780370C0
:1039F0004B784370CB788A781B02134343804B7912
:103A00000A791B0213438380CB798A791B02134303
:103A1000C380704710B50400802100F0CDF900216B
:103A2000200000F0C9F910BD70B504000D001600AB
:103A300000280DD0FCF768FBC3B201335B00338074
:103A40002B70032300206B70013B2178002900D1EB
:103A500070BD5A1CE954D2B202330134DBB2A8540F
:103A6000F3E71300A52210B50224920084500A0047
:103A7000C3610021036200F0CFF9002010BD10B532
:103A800013000A00002100F0C7F9002010BD10B596
:103A900013000A00002100F0C8F9002010BDA52382
:103AA00004229B0010B5C25000231A00190000F038
:103AB000B3F9002010BDA52305229B0010B5C2500C
:103AC00000231A00190000F0B0F9002010BD00001A
:103AD00010B50D4C002220000C49FFF720FC0028F7
:103AE00001D0FCF721FE20000949FFF732FC002835
:103AF00001D0FCF719FE2000FFF734FC002801D0AC
:103B0000FCF712FE10BDC046FC0900200001002099
:103B100094000020122301480B807047EC00002025
:103B2000042301480B807047E800002070B5002690
:103B300052008A188A4200D170BD050FECB22300F2
:103B40003733092D00D8073B0B704E70000102314E
:103B5000F0E700001A2310B50B800A4B18680A4BD7
:103B60001B68C01800280AD0084B08221C680849A6
:103B7000FFF7DCFF042220000649FFF7D7FF0648C5
:103B800010BDC046ACF7FF1FB4F7FF1FB0F7FF1F13
:103B9000CE000020DE000020CC00002010B5044C38
:103BA0000A0021000348FFF73FFF200010BDC04678
:103BB000C00C0020B443000810B5044C0A002100DA
:103BC0000348FFF731FF200010BDC046C00C0020A5
:103BD000B943000810B5044C0A0021000348FFF760
:103BE00023FF200010BDC046C00C0020CC430008BD
:103BF00010B5044C0A0021000348FFF715FF200010
:103C000010BDC046C00C0020D7430008002803D0D8
:103C10000238431E984101307047000007B50B4B36
:103C200002689A4211D18021094B0904DA691F20E8
:103C30000A43DA610022DB690B4001931100019B0A
:103C4000FCF702FF1F20FCF729FF07BD005C0040C6
:103C500000100240AC2310B59B00C1184033C0587F
:103C6000FFF79CFB10BD28234B43C3187D33FF3364
:103C70001A68BC2310B59B00C058FFF7C1FB10BDEC
:103C800028234B43C318DA6BBC2310B59B00C058E4
:103C9000FFF7F9FB10BDBC2310B59B00C058FFF720
:103CA0009BFC10BD836870B50400022B01D0FCF7AB
:103CB0003BFDBC25AD0001216059FFF772FC605946
:103CC000FFF745FC70BD0000BC2310B504009B004D
:103CD000C058FFF769FCA369002B04D00623024AF1
:103CE00011690B43136110BD00ED00E0836910B54D
:103CF0000400002B06D00621054A13698B4313618B
:103D0000FCF7CAFBBC239B00E058FFF759FC10BD31
:103D100000ED00E0BC2370B5040016489B00C450C1
:103D2000154BB025036008234360063B83600361A5
:103D30000023AD0060518361C3610362FDF742FA65
:103D4000002801D0FCF7F0FC002260591100182374
:103D5000FEF79BF86059582300228021FEF795F862
:103D600080236059002281215B00FEF78EF800203D
:103D700070BDC046D40E0020005C0040B02310B5DA
:103D80009B00C058FDF78AFAFFF740FF10BD10B541
:103D900014001A002300B024A4000059FDF78AFF84
:103DA000FFF734FF10BDB02310B59B00C058FDF7DE
:103DB000AEFFFFF72BFF10BDB02310B59B00C0581E
:103DC000FEF709F8FFF722FF10BDB02310B59B00E6
:103DD000C058FEF72CF8FFF719FF10BDB0234AB208
:103DE0009B00C358002A07DA7F2211400131573A5D
:103DF0004A439B189878704728224A439B186B3394
:103E0000FF331878F7E7B02310B59B00C058FDF7D3
:103E100058FAFFF7FBFE10BD10B5B024A4000059FE
:103E2000FDF7BCFFFFF7F2FE10BD10B5B024A400F3
:103E30000059FDF793FFFFF7E9FE10BD00487047FA
:103E4000C00E0020704703008218934200D17047D3
:103E500019700133F9E7000070B500260C4C0D4DC8
:103E6000641BA410A64209D1002600F019F80A4CE0
:103E70000A4D641BA410A64205D170BDB300EB58D7
:103E800098470136EEE7B300EB5898470136F2E762
:103E9000E8430008E8430008EC430008E843000852
:103EA000F8B5C046F8BC08BC9E467047F8B5C04699
:083EB000F8BC08BC9E467047F7
:103EB80029003A3B3C3D3E3F4041424344454A008D
:103EC800000000351E1F20212223242526272D2E01
:103ED8002A49535455562B141A0815171C180C1236
:103EE800132F30314C5F60615739041607090A0BEC
:103EF8000D0E0F33342800005C5D5E00E11D1B06CB
:103F080019051110363738E5000052595A5B58E048
:103F1800E3E200002C000000E665E40050514F6227
:103F2800630000000100000006000000000000001F
:103F3800000000000300000005000000030000006E
:103F480006000000030000000B0000000400000051
:103F58000500000004000000060000000400000046
:103F68000B00000005000000020000000500000032
:103F78000700000006000000030000000600000023
:103F88000400000006000000080000000600000011
:103F98000B000000070000000600000007000000FA
:103FA80007000000090000000200000009000000EE
:103FB80003000000090000000400000001000000E8
:103FC80005000000010000000700000003000000D9
:103FD80004000000030000000700000003000000C8
:103FE8000C000000040000000400000004000000B1
:103FF80007000000040000000C000000050000009D
:104008000300000005000000080000000500000093
:104018000E00000006000000050000000600000079
:1040280009000000060000000C0000000700000066
:10403800050000000700000008000000090000005B
:104048000100000009000000050000000900000050
:10405800060000000100000004000000010000004C
:104068000800000003000000030000000300000037
:1040780008000000030000000D000000040000001C
:104088000300000004000000080000000400000015
:104098000D000000050000000400000005000000FD
:1040A80009000000050000000C00000006000000E8
:1040B80006000000060000000A00000006000000DC
:1040C8000D000000070000000400000007000000C9
:1040D80009000000090000000000000009000000BD
:1040E80007000000090000000800000001000000AF
:1040F80003000000010000000900000003000000A8
:104108000200000003000000090000000300000096
:104118000E0000000400000002000000040000007F
:1041280009000000040000000E0000000500000067
:1041380005000000050000000A000000050000005E
:104148000D00000006000000070000000600000047
:104158000E00000000000000000000000000000049
:1041680000000000070000000A000000090000002D
:104178000F000000090000000A0000000000000015
:104188000000000001000000020000000100000023
:104198000A00000003000000010000000300000006
:1041A8000A000000030000000F00000004000000E7
:1041B80001000000040000000A00000004000000E4
:1041C8000F000000050000000600000005000000C8
:1041D8000B000000060000000200000006000000BE
:1041E8000F000000000000000000000000000000B8
:1041F80000000000070000000D000000070000009C
:104208000B000000090000000E000000090000007B
:104218000B00000009000000090000000100000078
:104228000100000001000000000000000300000081
:104238000000000000000000000000000000000076
:104248000000000004000000000000000000000062
:104258000000000000000000000000000000000056
:1042680000000000050000000F000000060000002C
:10427800010000000600000000000000000000002F
:1042880000000000070000000F0000000700000009
:104298000E000000070000000C00000009000000EC
:1042A8000D000000090000000C00000000000000E4
:1042B8000000000000000048010000000000004865
:1042C800040000000000004808000000000000484A
:1042D80080000000000000482000000000000048A6
:1042E80040000000000000480002000000000048F4
:1042F800000100000004004800800000000400489D
:1043080000400000000400480008000000040048C5
:1043180000040000000400480400000000040048F5
:1043280002000000000400480020000000040048CB
:10433800001000000004004840000000000400488D
:10434800200000000004004810000000000400489D
:104358000800000000040048800000000014004825
:104368000100000000080048008000000008004824
:104378000040000000080048002000000000000085
:1043880000000000010203040607080901020304F3
:1043980005060708090A0B0C0D0E0F100203040589
:1043A800060708090A0B0C0D0E0F10104154415452
:1043B80000415441545F31383030204B6579626F89
:1043C8006172640048494420436F6E66696700481B
:1043D800494420496E746572666163650000000097
:0443E800E9000008E0
:0443EC00C100000804
:1043F00000127A0001000000040000000501090617
:10440000A101050719E029E71500250175019508A7
:10441000810275089501810119002965150025653E
:104420007508950681000508190129031500250165
:10443000750195039102750595019103C000000077
:104440000A060002000000400100000009211101DD
:10445000000122410000000009022900010100E0E2
:1044600032090400000203010100092111012101A8
:104470002241000705810308000A07050103010026
:104480000A000000893200086532000889310008FE
:104490000000000000000000553100086D310008E8
:1044A000000000000000000000000000DD320008F5
:1044B00049310008D1320008613100081A030000B8
:1044C00000000000000000000000000000000000EC
:1044D00000000000000000000403090412010002B3
:1044E0000000004083042B5700020102030100007A
:1044F000153B0008213B00089D3B0008B93B000824
:0C450000553B0008D53B0008F13B0008CB
:0400000508000945A1
:00000001FF
