:020000040800F2
:10000000004000201D0900082508000827080008F6
:1000100000000000000000000000000000000000E0
:100020000000000000000000000000002908000897
:1000300000000000000000002B0800082D08000848
:100040006D0900086D0900086D0900086D090008B8
:100050006D0900086D0900086D0900086D090008A8
:100060006D0900086D0900086D0900086D09000898
:100070006D0900086D0900086D0900086D09000888
:100080006D0900086D0900083508000855080008CA
:100090006D0900086D0900086D0900086D09000868
:1000A0006D0900086D0900086D0900086D09000858
:1000B0006D0900086D0900086D09000809090008AC
:1000C00010B5064C2378002B07D1054B002B02D02E
:1000D000044800E000BF0123237010BD1C01002074
:1000E00000000000883E0008044B10B5002B03D030
:1000F0000349044800E000BF10BDC04600000000F6
:1001000020010020883E000802B4714649084900D9
:10011000095C49008E4402BC7047C04603B4714676
:10012000490840004900095A49008E4403BC704701
:10013000002243088B4274D303098B425FD3030A26
:100140008B4244D3030B8B4228D3030C8B420DD339
:10015000FF22090212BA030C8B4202D312120902C7
:1001600065D0030B8B4219D300E0090AC30B8B4205
:1001700001D3CB03C01A5241830B8B4201D38B03B3
:10018000C01A5241430B8B4201D34B03C01A524158
:10019000030B8B4201D30B03C01A5241C30A8B429B
:1001A00001D3CB02C01A5241830A8B4201D38B0286
:1001B000C01A5241430A8B4201D34B02C01A52412A
:1001C000030A8B4201D30B02C01A5241CDD2C3099C
:1001D0008B4201D3CB01C01A524183098B4201D318
:1001E0008B01C01A524143098B4201D34B01C01A03
:1001F000524103098B4201D30B01C01A5241C3087B
:100200008B4201D3CB00C01A524183088B4201D3E9
:100210008B00C01A524143088B4201D34B00C01AD5
:100220005241411A00D20146524110467047FFE741
:1002300001B5002000F006F802BDC0460029F7D045
:1002400076E770477047C046F0B5284B87B01D0071
:1002500005930023264F04933A23049A234C5343D7
:10026000049AE4180023012651006422A370E3706D
:100270006031AB1C029200931E48330089B2019694
:10028000623A00F073FEB0420AD100233B60049B47
:100290003A350133049304370A2BDDD107B0F0BDA2
:1002A000BD232A003F20FF216B70BE3B2E703E60B5
:1002B000237163711133013B9BB29072D172117340
:1002C0000332002BF7D16024059E642321000293A2
:1002D00002342A3B0193009600220648393BA4B21F
:1002E00000F044FE3A36742CEFD1D0E7AD07002081
:1002F00098060020C0060020F0B5602430270C4E80
:100300000C4D85B03368002B09D064230A22029378
:100310002100094801970095633B00F027FE023455
:10032000A4B204363A35742CECD105B0F0BDC04609
:1003300098060020B7070020C0060020F0B5002076
:100340000C26214B85B00193E422424300239446BE
:10035000019D1E4C32005A4362441159002928D095
:10036000A2185168002924D091683F319160320071
:100370005A436244A218926829680292144A6F682C
:1003800003920A0003214F4337315143039A7918EE
:100390005218029901338908013191720835132BE3
:1003A000D8D1019B0130983301930628CCD105B0F8
:1003B000F0BD32005A436244A21891680029D6D099
:1003C00091680139D2E7C046A03E00083C010020F8
:1003D000AD07002010B5104B104A197810788842EC
:1003E00018D01B780121DBB21C00AA2013700C4A24
:1003F0000C40FF301454D0245810084064001055AD
:10040000A4249810DB1008400B40A631FF34FF31C4
:100410001055535410BDC046AC0700209406002070
:10042000AD070020030030B51A00802408002240E8
:10043000194923420DD0713C1C4001230A78A34086
:10044000002803D01A430A70002001E09A430A7082
:1004500030BD002813D006248818807895B28342D6
:1004600018D0002802D1062C00D12C000132062A17
:10047000F2D10120062CEBD00C19A370E4E70200A6
:100480008C18A578AB4202D10023A370E0E70132BB
:10049000062AF5D10220DBE7A407002030B510259D
:1004A00099B0302200210CA803F0C1FC2A000021E1
:1004B000684603F0BCFC1C22002104A803F0B7FC32
:1004C000012422230BA80B930E9413940F9501F093
:1004D000F9FC002801D072B6FEE7072302900093D2
:1004E0000390043B21006846019301F071FF00284E
:1004F00001D072B6FEE7064B08900A9004A8049358
:1005000001F0F0FF002801D072B6FEE719B030BD4F
:1005100020000200F0B514268BB000F04DFAFFF772
:10052000BDFF3200002105A803F081FC80216D4B46
:1005300009035A6990200A435A615A69C0050A4062
:1005400080210192019A5A69C9030A435A615A6982
:1005500000240A4080210292029A5A6989020A43C1
:100560005A615A6901270A4080210392039A5A6905
:10057000C9020A435A615B6901220B400493ED21D1
:10058000049B00F069FBE02357481B0205A9059373
:100590000694079700F094FA544805A90597069425
:1005A000079700F08DFA9020ED2305A9C00505936B
:1005B00006970794089400F083FA4D4805A905971B
:1005C0000694079400F07CFA4A4B494805A9059324
:1005D0000694079700F074FAC02390209B0005A9A9
:1005E000C00505930694079700F06AFA80239020CF
:1005F000DB0005A9C00505930694079400F060FA96
:100600003D4D3E4B28002B603D4BAC606B60EF6076
:100610002C616C61AC61EC612C6200F051FC01005A
:10062000A04201D072B6FEE7280000F081FD011E55
:1006300001D072B6FEE7280000F0A0FD041E01D034
:1006400072B6FEE703F038FA2E4D2F4B28002B60D0
:1006500030236B60FA239B00AC60EB602C61AC61D3
:1006600002F062F8071E01D072B6FEE70100082210
:1006700005A803F0DCFB254C254B20002360254B0F
:10068000A7606360E660A76102F04EF8002801D021
:1006900072B6FEE70590069005A9200002F06CF8FE
:1006A000002801D072B6FEE7300000F0A7F9FFF78E
:1006B000CBFD280001F0B8FF200001F0B5FF164C7B
:1006C0002368002BFCD008221449154802F004FED0
:1006D000002803D12368013B2360F0E70A2000F0E3
:1006E0008DF9F0E7001002400008004800140048AF
:1006F00000040048FEFC0000C0060020005400403A
:100700000A02100014070020002000405C070020AF
:100710000014004080BB000038010020A407002026
:10072000000A002072B6FEE701210A4B82B09A69E6
:100730000A439A619A690A4080210092009ADA6914
:1007400049050A43DA61DB690B400193019B02B062
:100750007047C0460010024010B5040088B0142253
:10076000002103A803F063FB124B22689A421FD1B9
:100770008022114CD202636910481343636163699C
:1007800003A913400193019BC0239B0003931223F1
:1007900004930F3B0693023B079300F091F98022EC
:1007A000E36992031343E361E36913400293029BFD
:1007B00008B010BD00540040001002400004004882
:1007C00007B50368144A934211D12021134B12201C
:1007D000DA690A43DA61DB6900220B4000931D39B4
:1007E000009B00F01DF9122000F044F907BD0C4AEF
:1007F0009342FBD18021094B4900DA6913200A4357
:10080000DA61DB6900220B400193FF39019B00F0A4
:1008100007F91320E8E7C04600140040001002402A
:1008200000200040FEE7FEE77047704710B500F07B
:10083000D3F810BD10B5FFF781FDFFF7CBFDFFF733
:100840005BFD0222024B52421B681A6110BDC0467A
:100850005C070020F7B50025244EB188306800F011
:10086000F5F9E4210C23224C6B432768214A794394
:100870005B1899580191814214D10120D118486028
:100880000199484241419950995813227A431A4B91
:100890009B18585DFFF7C6FD002803D1174A13685F
:1008A0000133136001350836132DD6D12368144D5A
:1008B000DB00EA1891885859012200F0CDF923682D
:1008C0005A1C052B0ED022602368DB00EA18E8587A
:1008D0009188002200F0C0F902220A4B52421B68A4
:1008E0001A61F7BD00232360EEE7C046A44200086A
:1008F000F40900203C0100203042000838010020AB
:100900003C4300081407002010B5024800F0EAFC40
:1009100010BDC046C40E0020704700000D4885463B
:10092000FFF7FAFF0C480D490D4A002302E0D458A6
:10093000C4500433C4188C42F9D30A4A0A4C002329
:1009400001E013600432A242FBD303F079FAFFF70F
:10095000E1FDFEE700400020000000201C01002017
:10096000DC4300081C010020CC110020FEE7000041
:1009700070B50500FA200D4B80001978FFF7D8FB01
:100980000B4C01002068FFF7D3FB00F07FF8040058
:100990000120002C09D1032D07D80238220029009C
:1009A00000F03EF82000034B1D6070BD04000020E5
:1009B00000000020080000201023064A10B511682E
:1009C00003200B431360FFF7D3FFFFF7ADFE0020BA
:1009D00010BDC04600200240034A044B11681B783A
:1009E0005B1813607047C046F8090020040000201F
:1009F000014B18687047C046F809002070B5040024
:100A0000FFF7F6FF0500631C02D0044B1B78E418C7
:100A1000FFF7EEFF401BA042FAD370BD0400002098
:100A200030B5FF2503242A000440E400A2408901D8
:100A30002940D243A140C3B200280ADBC0240B4B9B
:100A400080088000C018A400035913400B430351D1
:100A500030BD0F200340083B05489B089B001B1836
:100A6000D86902400A43DA61F2E7C04600E100E0DB
:100A700000ED00E0002805DB1F2318401E3B8340EB
:100A8000014A13607047C04600E100E08022431E27
:100A90005204012093420DD2C021074A07485360F7
:100AA000036A09061B021B0A0B430362002007238B
:100AB000906013607047C04610E000E000ED00E079
:100AC0005B4AF0B58218541EA241002389B004325B
:100AD00005920A681400DC4001D109B0F0BD012480
:100AE0002500A4469D4014002C4002942A4200D1C7
:100AF0009CE003244A685F0001922240BC40E4432A
:100B00000394541E64452FD88668039C2640CC6805
:100B1000BC403443664684604468AC432500019C75
:100B2000240934409C402C434460C568039C254004
:100B30008C68BC402C43C460022A17D107250F26BD
:100B40001D40AD00AE40B446DC08A4000419049476
:100B5000246A26006446A643B4460E696446AE4045
:100B60002643049C266201E0032ADED1BA400468D1
:100B7000039D25402A430260C022019C9202144238
:100B800054D001262B4A1D00946934439461926924
:100B90009C0832400792079A274AA400A418A2682A
:100BA000944603221540AD000C32AA406746974395
:100BB0009022D2059446002260450DD01F4A9446EB
:100BC0003200604508D01E4E9218B04204D01D4E2F
:100BD0000132B04200D0059AAA403A43A2601A4AB4
:100BE000029C9668029D019FE4433543FF0201D4B5
:100BF000350025409560D668029D019F3543BF02B0
:100C000001D435002540D5605668029D019F3543CB
:100C1000BF0301D43500254055601568029E019F31
:100C20002E43FF0301D425402E001660013350E708
:100C300000F0FFB70010024000000140000400482F
:100C400000080048000C004800040140006908400A
:100C5000431E9841C0B27047002A01D0816170479D
:100C60008162FCE703689A69920701D500229A62C3
:100C700001229969114202D199690A439A61704728
:100C800030B5039C00682343120489051A43890D7B
:100C9000054B45680A43640D234352009D435208A7
:100CA0002A43426030BDC046FF63FF03F7B515001D
:100CB00002680E00916910230F0004001F400020FD
:100CC00019420ED02027D3610090019023689A69C1
:100CD0003A4263D1019A002A31D004270120009BB7
:100CE0001F43802225685200AB69134202D00120C5
:100CF000EA6107438022D200134203D00821012079
:100D00000F43EA618022920013424CD00223EA6131
:100D10001F432000FFF7A6FF6B68244A0120134001
:100D20006B60636C20223B436364230041331A7081
:100D300022000023423240341370237035E0721CCD
:100D4000C5D0FFF755FE401BB04201D8002EBDD1E3
:100D500022002368423258681178CAB28021944632
:100D60009A6909020A420CD08022D201104208D1AD
:100D70006146202905D059680A435A60FFF738FEBA
:100D8000050023689B693B42A0D1FFF731FE401B61
:100D90001928F6D901230097019397E7019A002AB1
:100DA0009BD1DF6199E70028B3D1FEBD00E800FECA
:100DB000F8B504000D001600022723689B693B422A
:100DC00001D00020F8BD320029002000FFF76EFF9F
:100DD000002818D16B1CF0D0FFF70AFE801BA84238
:100DE00001D8002DE9D123689B691A003A403B42A3
:100DF000E3D12021636C0B4363642300403441330F
:100E000019705A7022700120DCE7F8B504000D005B
:100E100017001E00226893692B405B1B59424B410F
:100E2000BB4201D000201FE0731CF4D0FFF7E0FDAF
:100E3000069BC01AB04201D8002EEBD123689B69F3
:100E40002B405B1B5A425341BB42E3D12022636CCF
:100E5000012013436364230041331A7022000023EE
:100E60004232403413702370F8BDF8B504000E0010
:100E70001700202523689B692B4201D00020F8BD74
:100E80003A0031002000FFF711FF002815D1FFF7CD
:100E9000AFFDC01BB04201D8002EEBD123689B6987
:100EA0001A002A402B42E5D1636C2B436364230074
:100EB000403441331D705A7022700120DFE700007A
:100EC00070B504000120002C3FD0250041352B785F
:100ED000DAB2002B05D12300403320001A70FFF74F
:100EE0003BFC242301212B702368E0681A68A66864
:100EF0008A431A601A4962680A401A619A68194955
:100F00000A409A60012821D18022120232439A605D
:100F10005868154A02435A60DA6800200A40DA60CD
:100F2000616922690A43A16909020A43DA60216AF8
:100F3000E2690A431A60012219680A431A602023F1
:100F400060642B7020634234207070BD84221202D2
:100F500032439A600228DBD1802212015A60D7E71F
:100F6000FFFFFFF0FF7FFFFF00800002F0B589B0B8
:100F700004930EAB039204CB04001B8805920693E6
:100F80000300413307931B780F000220109E202B93
:100F900008D1002A02D0069B002B05D180239B009C
:100FA0006364012009B0F0BD230040331A780220A9
:100FB000012AF7D001221A70FFF71AFD80210500DF
:100FC00000901923012220000902FFF71EFF0028CC
:100FD000E7D12123079A3900137023004233079386
:100FE0004023079A1370059B60646362069B6063ED
:100FF00063856B461A7C4C4B2000009380235B0476
:10100000FFF73EFE2A0031002000FFF7D1FE002846
:1010100029D1049A2368012A16D16A46127B9A6262
:1010200033000022802120000095FFF7EEFE00280B
:1010300019D1638DFF2B1AD88023628D9B0492B245
:101040002285D2B2009017E0039A3100120A9A6208
:1010500020002A00FFF7ACFE002804D16B4622686E
:101060001B7B9362DCE700234034237099E7FF2267
:10107000802322855B04009039002000FFF700FEEA
:101080002A0031002000FFF793FE002800D088E7F7
:10109000636A22681978013391626362638D228DDD
:1010A000013B9BB26385013A638D92B22285002B8E
:1010B00017D0002A15D13300802120000095FFF7BA
:1010C000A4FE002800D06CE7638DFF2B23D9FF23FB
:1010D00023858023FF2200905B0439002000FFF766
:1010E000CFFD638D002BCBD12A0031002000FFF70C
:1010F000BCFE002800D054E7202123680B4DD961A5
:101100005A682A405A60230041331970079B4034C3
:101110001870207046E78023628D9B0492B222856E
:10112000D2B20090D9E7C0460020008000E800FE5F
:10113000F0B504004134227803000F000220D6B23B
:10114000202A18D11D0040352A78012A13D02422E4
:1011500022701B68233A196807489143196019687F
:1011600001400020196019683943196019680A4361
:101170001A6026702870F0BDFFEFFFFF0200F0B587
:10118000413214780300E5B20220202C17D11C0054
:1011900040342678012E12D0223010701B6823387C
:1011A0001E68074F86431E601E6809023E40314399
:1011B0001960196808431860002015702070F0BD90
:1011C000FFF0FFFFF0B50400012587B0002832D002
:1011D000304D435DDAB2002B04D1AA239B00C254E8
:1011E00002F010FD03236355206801F001FB00238A
:1011F000012719006068834220D3002228261100AD
:10120000904233D823006A46103343CB43C203CB0A
:1012100003C2A268E3686168206801F0F3FA002362
:10122000621DD37701226255E2691D00012A02D1B5
:10123000200000F031FE280007B0F0BD292628224A
:10124000B4465A43A2189444664637702826B446DA
:101250009444664633702B26B44694446646013364
:101260003170DBB29163D1631164C4E7330053433F
:10127000E3181F006A37FF373970013F3A70F97081
:1012800081336C3FF967FF33803701323960D2B266
:101290001960B5E7A902000070B5AA25AD00435D4D
:1012A00004000220012B09D001236355206801F0BE
:1012B00095FA206801F0A3FC0020605570BD70B560
:1012C000AA25AD00435D04000220012B08D00123B4
:1012D0006355631DD977206801F08AFC00206055B2
:1012E00070BD0000F0B5040085B0006801F08FFC0F
:1012F000802305001B021D40184201D100F017FC9D
:101300002068821DD38F1BB2002B01DB05B0F0BD1E
:101310000F21D38F194001910F219AB20B4200D0B7
:10132000C3E01023110019401A422AD10388B84A99
:1013300013408022120213430380030050331A88A3
:10134000230028331B78DB00C3189B18B14A200008
:101350009B181B88E26B9B059B0D6364D318E363AA
:1013600002F082FC631DDA7F002AC9D0206C22685B
:101370000028C5D18025D97F4C3229431180D877E8
:10138000BEE7028880211600090193B20E400A428E
:1013900022D0030050331A88B4235B00E35CAC21F5
:1013A000DB00C3189B189C4A89009B1822001B88ED
:1013B00069329B059B0DFF32D3616118D28801F021
:1013C00093FE22689549138820000B4080210B432F
:1013D000138002F033FC93E71BB2002B00DB8FE796
:1013E00003888E4A250013408022134303800300A4
:1013F00050331A88B4235B00E35C6935DB00C31803
:101400009B18854AFF359B181B889B059B0DEB613C
:101410000DD0696900290AD0EA8801F065FE6B6980
:10142000EA6931009B1820006B6102F010FC216812
:101430000A8893B2120500D562E7C02292011340D8
:10144000934200D15CE70B0050331A88724BCB18E3
:101450009B181A889205920D1A802A693E2A0CD987
:101460001F2550092A4055426A41801A1A88800275
:1014700010436B4A024392B205E0002A0ED180204D
:101480001A88000202431A800A88664B1A40C02359
:101490009B015340644A13430B8031E701255008F8
:1014A0002A40801880021A88E4E7019B9F00C21935
:1014B000138899B21BB20291002B00DBF6E013886F
:1014C00056490B4080210B4313802823019A534334
:1014D000E3181A001D007532FF3212786935FF35A6
:1014E000002A1AD10200503211882A78D2005218EC
:1014F00049491218521812889205950D002A00D1F8
:10150000B3E01A006F327D33FF331900FF322B0036
:101510001288096801F0E8FDA7E019006C31FF317D
:1015200009782A78022900D084E08026F601B446A2
:101530006546029E81332E40039606005036009683
:101540006646029DFF331968354230D0009D2E88D3
:10155000D50076192F4D361876193588AD05AD0DA5
:101560008D420DD900211960910041180E882D4B34
:101570001E4080239B0173402B4E33430B8002E0BF
:10158000491B1960F0D0029B5B0607D592008218B8
:10159000138826490B4026490B431380002D64D045
:1015A0002823019A5343E3181A007132ABE7009DD8
:1015B0002E88D5007619184D361876193588AD0560
:1015C000AD0D8D420DD903991960910041180E8817
:1015D000144B1E4080239B017340134E33430B80FA
:1015E00002E0491B1960F0D0029B5B0607D4920011
:1015F000821813880D490B400D490B431380002DB1
:1016000033D02823019A5343E3181A0073327AE740
:101610000F8FFFFF02040000060400008F0F000080
:101620000080FFFF8FBFFFFF808000008F8FFFFFD4
:10163000C0800000920082181688CE493140CE4EFC
:10164000314311802A78910041180D8801005031F2
:101650000988D200521812186D0462D5C749521871
:1016600012889205950D002A9ED12823019959438D
:10167000621816008536FF363068083E4019B060A3
:1016800030684019306010008130FF300068002859
:1016900003D0FC32D26F95424BD2019A20005343C3
:1016A000E3186933FF33197802F0D1FA8022029BE4
:1016B0002068134200D123E6C2191388B049019D66
:1016C0000B40B0490B439BB2138028235D4365193F
:1016D0002A002B321178EA18012959D10023290058
:1016E0002B6434310978994236D04021029E029F02
:1016F0000E4029350F4234D02978994220D1030079
:10170000117850331D889D4BC900C3185B19C91847
:101710000B889C489B059B0D0B800B8803439BB259
:1017200019E09949521812889205950D002A9CD00B
:101730006BE76931FF312068611801F081FAB5E784
:10174000012909D101008D4E50310D881178801981
:10175000C900401909180B801178200002F084FAA2
:10176000CEE52B78002B06D10300117850331D886D
:10177000C900854BC9E7012BEED10300824D5033E0
:10178000198813784019DB0040181B181E80E3E706
:101790001278029F0392D200009280220299520096
:1017A0002E6C174011421ED102005032128800994F
:1017B000821852187149521812889205920DB2423D
:1017C00002D303992F64C8E7E96BB61A8918E96355
:1017D000696C2E648A1801996A6401315943611851
:1017E00001F02EFA8CE540220300029F0299174077
:1017F0005033114200D1DCE060491A884718009943
:10180000BA18525A9205920D94460022B44501D25C
:101810006246B21A282601994E43A61932648026E0
:101820000299F60131400E00002A4AD129218C4646
:10183000AC446146097800292ED11A880099BA185B
:10184000521817884F49BF05BF0D178017880F43DF
:10185000BFB217804C4A1B888018C018009BC01864
:1018600003889B059B0D038003880B439BB2038079
:101870002000039902F0F8F9002E00D1D8E02B00E7
:1018800028331B7822689B00D218138839490B40F3
:101890003E490B431380CBE00B000129E8D14F33C5
:1018A0009C46844463461B880099FB185B181A8089
:1018B000634635491B884018C018009BC018028039
:1018C000D6E7002908D0039B990041180A88294BC4
:1018D00013402E4A13430B802823019A5343E318E5
:1018E0001E004C363278012A00D0A1E0DA6B996CE8
:1018F00062440292DA635A6C62445A649A6B91426F
:1019000029D3891A99642B002933197893B20029B5
:1019100045D1010050310988009E791889190E8837
:10192000B605B60D0E803E2A1FD91F2756093A402C
:1019300057427A41B61A0A88B6023243114E3243F0
:1019400092B20A80282201994A43A218128E029963
:1019500001F061F96CE0002902D162463170D2E7F2
:10196000002232709A640A00CDE7002A10D10A885A
:10197000E4E7C0468F8FFFFFC08000000204000034
:101980000F8FFFFF0080FFFF0604000080C00000F3
:10199000012756083A40B618B6020A88CFE701294F
:1019A000D0D1020050321288BF18009ABF183B8075
:1019B000C8E7A9491A888C46009984446244525A5F
:1019C0009205920DB24200D8B71A282601994E43CB
:1019D000A619376480260299F60131400E00002FC7
:1019E00040D12A0029321278002A2BD19B491A882B
:1019F00040188018009A9A49801802889205920D22
:101A0000028002880A4392B202801B88009A6344D3
:101A10009B181A889205920D1A801A880A4392B26E
:101A20001A802000039902F01FF9002E00D126E74A
:101A300028352B7821689B00C9180A88894B1A40E1
:101A4000302326E5012AECD10300844950331A885B
:101A500040188018009A801807801B8863449B18E0
:101A60001F80DEE7002908D1039B990041180E88EA
:101A70007D4B33407D4E33430B80282301994B43EC
:101A8000E3181F004C3739780129D1D1D96B9E6CEE
:101A900089180291D963596C89185964996B8E42DF
:101AA00026D3761A9E642B0029331A788BB2002A2B
:101AB00033D1020050321288009E62449219168877
:101AC000B605B60D16803E291CD91F274E09394090
:101AD0004F427941761A1188B6023143604E314344
:101AE00089B21180282201994A43A218528E2EE70A
:101AF000002E02D111003E70D5E7002231009A6419
:101B00003A70D0E7002901D11188E7E701274E0894
:101B100039407618B6021188E1E7012AE2D10200C5
:101B2000503212880099624452181380DAE7430554
:101B30000ED523684E490633DA8F20000A40DA8733
:101B400002F0A4F829002000FFF7B9FBFFF7DEFB45
:101B5000430407D5236847490633DA8F0A40DA87FA
:101B6000FFF7D4FB802301009B011940184204D0E9
:101B7000236841490633DA8FF0E7C3041AD50420FD
:101B800023680233DA8F8243DA87DA8F00188243C0
:101B9000DA87B8239B00E25C012A03D12000E154DC
:101BA00000F08EF9200002F095F8236833490633DF
:101BB000DA8FD3E7030513D5082123689A1CD08F49
:101BC00006330143D187D98F2D480140D98704239B
:101BD000D18F0B43D387200002F06AF8FFF796FB02
:101BE0008025284221D0B82023688000991DCA8F03
:101BF000AA43CA87225C002AEDD1991CCD8F0432FA
:101C00002A43CA870822CD8F54332A43CA87012129
:101C10003C2221541B8820009B081340B9229200CB
:101C2000A35000F04DF9FFF771FB83050AD5236837
:101C300014490633DA8F20000A40DA8702F01FF8D1
:101C4000FFF764FBC00501D4FFF760FB23680E4972
:101C50000633DA8F82E7C046060400000204000063
:101C60000080FFFFBF8FFFFF8F8FFFFF80C000004E
:101C7000FFFBFFFFFFBFFFFFFFDFFFFFFFEFFFFFE8
:101C8000FFF7FFFFFFFDFFFFFFFEFFFF70B5050041
:101C90000720084049B22824002919DA411C614371
:101CA000273C69184C7008700A61CB70022B01D177
:101CB00000230B71AA24A4002B5D0220012B06D067
:101CC00001232B55286800F0B1FD0020285570BD78
:101CD0004443210000262C1969316A34FF31FF3456
:101CE00069182670DFE707220A4049B270B5282339
:101CF0000400002913DA511C5943273B41184B704B
:101D0000AA250A70AD00635D0220012B06D00123D5
:101D10006355206800F098FE0020605570BD534365
:101D200019006931FF31C318411800206A33FF33AD
:101D30001870E5E770B50724214021344C4305199C
:101D40002E007D36FF3632602A008132FF3213606A
:101D50002B0000268533FF3369351E60FF351B3BA2
:101D60001E70297021006931FF314118006800F0B0
:101D700067FF300070BD70B528260724214034006D
:101D80004C4304192500E26301224C3523642A7078
:101D90000025A364230065642933A4191A702170F7
:101DA000891871434118006800F04AFF280070BD8F
:101DB0000722436870B50A40040001209A4217D8F0
:101DC00048B22823002814DA511C5943273B6118D4
:101DD0004B700123AA258B700A70AD00625D022052
:101DE0009A4205D06355206800F0A8FE0020605597
:101DF00070BD4B4319000020E31869316A33FF318D
:101E0000FF3361181870E4E70F23426870B50B4088
:101E100004000120934219D807220A4049B228231E
:101E2000002914DA11185943611848700025AA26B0
:101E30008D700A70B600A35D0220012B06D001232D
:101E4000A355206800F09AFE2800A55570BD5343A5
:101E500019000020E31869316A33FF31FF3361183C
:101E60001870E3E710B50C0021060CD507212140BE
:101E7000282401316143401899B2002A08D1027325
:101E8000C180002010BD282161436931FF31F2E794
:101E9000012283600273F4E703680200BA20012183
:101EA00010B58000B82411500020A4001055543300
:101EB0001A8811430222198019880A431A8010BD1A
:101EC00070470000F0B5040085B000284ED00368CC
:101ED000DB0733D423689B0700D58AE023681B0700
:101EE00000D5CAE023685B0700D5EDE02368DB0678
:101EF0001AD562690423BB4D012A00D056E1696BF3
:101F000002270B436B636B6B1A436A63FEF770FD2A
:101F100006006B6B3B4200D141E1F8216A6BA3697B
:101F20008A43DB0013436B6323689B0600D565E19E
:101F3000636A002B00D0A4E100202FE00C22A94D01
:101F40006B681340042B0BD06B681340082B0FD128
:101F5000C0226B685202134080225202934207D182
:101F60002B689B03B6D56368002BB3D1012015E025
:101F70006368012B14D180232A685B0213432B6012
:101F8000FEF736FD80270600BF022B683B42A1D139
:101F9000FEF72EFD801B6428F7D9032005B0F0BDA5
:101FA000002B16D12B68904A802713402B602B689A
:101FB0008E4ABF0213402B60FEF71AFD06002B6805
:101FC0003B4200D186E7FEF713FD801B6428F6D95B
:101FD000E3E7052B05D180232A68DB0213432B603E
:101FE000C9E72B68804A13402B602B687F4A134057
:101FF000C5E70C227B4D6B6813420BD06B68134016
:10200000082B15D1C0226B685202134080221202A5
:1020100093420DD12B689B0702D5E368012BA5D114
:10202000F8212A6823698A43DB0013432B6055E7B4
:10203000E2680123002A0FD02A68022713432B608D
:10204000FEF7D6FC06002B683B42E9D1FEF7D0FC38
:10205000801B0228F7D9A0E72A6802279A432A6042
:10206000FEF7C6FC06002B683B4200D136E7FEF7C0
:10207000BFFC801B0228F6D98FE7E2690123594D86
:10208000002A10D06A6A022713436B62FEF7B0FC85
:1020900006006B6A3B4200D024E7FEF7A9FC801BD8
:1020A0000228F6D979E76A6A02279A436A62FEF73C
:1020B0009FFC06006B6A3B4200D113E7FEF798FCD9
:1020C000801B0228F6D968E780220021454D520581
:1020D000EB690091134208D1EB691343EB61EB69A3
:1020E00013400393039B012300938027404E7F00FE
:1020F00033683B4215D0A368012B22D12A6A1343CF
:102100002B62FEF775FC022706002B6A3B423FD08C
:10211000009B012B00D0E9E6EB69364A1340EB61E6
:10212000E4E633683B433360FEF762FC01903368BA
:102130003B42E0D1FEF75CFC019BC01A6428F6D953
:102140002BE70122002B14D12B6A022793432B6229
:102150002B6A033293432B62FEF74AFC06002B6A7C
:102160003B42D5D0FEF744FC234B801B9842F6D966
:1021700013E7052B05D1296A013B0B432B622B6A20
:10218000BDE72B6A934304222B622B6A9343B7E784
:10219000FEF72EFC184B801B9842B6D9FDE6FEF7E1
:1021A00027FC801B022800D8B3E6F6E6053203D1EF
:1021B0006A6B9A436A63B0E66A6B02271343012293
:1021C0006B636B6B93436B63FEF712FC06006B6BE8
:1021D0003B4200D1A8E6FEF70BFC801B0228F6D993
:1021E000DBE6C04600100240FFFFFEFFFFFFFBFFE3
:1021F00000700040FFFFFFEF881300000C22554DD8
:102200006B681340934209D06B681340082B0ED1C2
:10221000C0226B6852021340934208D16B6B9B0340
:1022200000D485E6236A012B00D09FE680E6236A6E
:10223000002B13D080236A6B5B0213436B63FEF7A2
:10224000D7FB80270600BF026B6B3B4200D06FE6D6
:10225000FEF7CEFB801B0228F6D99EE66B6B3E4A4A
:10226000802713406B63FEF7C3FB0600BF026B6B56
:102270003B4200D15CE6FEF7BBFB801B0228F6D98F
:102280008BE60C21334D6A680A40082A47D0334A4E
:10229000022B32D12B68802713402B60FEF7A8FB5E
:1022A0000600BF042B683B4221D10F22EB6A802637
:1022B0009343226BB6041343EB62A16AE36A6A6834
:1022C0000B4327490A4013436B6080232A685B0451
:1022D00013432B60FEF78CFB04002B68334200D0C5
:1022E0002AE6FEF785FB001B0228F6D955E6FEF725
:1022F0007FFB801B0228D5D94FE62B688026134030
:102300002B60FEF775FB0400B6042B68334200D146
:1023100012E6FEF76DFB001B0228F6D93DE6012B05
:1023200000D123E6C0216B68A06A4902EA6A19401D
:10233000814200D01AE60F210A40216B8A4200D068
:1023400014E6F02292031340E26A934200D1F3E5CF
:102350000CE6C04600100240FFFFFEFFFFFFFFFE3D
:10236000FF7FC2FF0C2070B5134D6B681840082822
:1023700008D00C38431E9841104B40421840104B77
:10238000C01870BD0F200F499A0C02408C5CEA6A9D
:102390000D490240895CC022802052021340400255
:1023A000834201D1094802E09342FBD10448FDF782
:1023B000BFFE6043E5E7C0460010024000A69DFD59
:1023C000006CDC027C4300088C43000800127A0099
:1023D000F7B504000F00002801D10120FEBD012245
:1023E0003A4D2B6813408B421CD32268930722D4AA
:1023F000D2072FD401232A681A40BA4257D823683B
:10240000334D5B075AD4FFF7ADFF6B68314A1B06AB
:102410001B0FD35C3049D84008600320FEF7A8FAB0
:102420000020DBE72B6893430B432B602B681340A2
:102430008B42D2D1D9E72649530704D5E023486817
:10244000DB0003434B60F0204B688343A0680343E9
:102450004B60CDE762681E4E012A03D133689B03AF
:1024600005D4BAE7022A1AD133689B01B5D50321F6
:1024700073688B4313437360FEF7BAFA01900C2321
:1024800072681A4063689B009A42B3D0FEF7B0FAB4
:10249000019BC01A114B9842F1D903209EE7032AF1
:1024A00001D1736BDBE733689B07E0D495E72A68BB
:1024B0009A432A602A681A42A1D08EE76B68084ABC
:1024C0001340E26813436B609DE7C0460020024062
:1024D000001002406C430008000000208813000038
:1024E000FFF8FFFFF0B50368050085B0DB032BD5CF
:1024F00080220021454C5205E3690091134208D126
:10250000E3691343E361E36913400393039B0123EE
:10251000009380273E4E7F0033683B4244D0216ABF
:10252000C022080092006B683A4E104011424DD113
:10253000236A6A68334013432362009B012B03D153
:10254000E369354A1340E3612B68DA0706D50320B7
:102550002E490A6B8243A86802430A639A0706D58C
:102560002A492E480A6B0240E86802430A639A0629
:1025700006D5102025490A6B8243286902430A6365
:102580009A0306D5802021490A6B8243A869024339
:102590000A6300205B0517D540211C4A136B8B434F
:1025A00069690B4313630FE033683B433360FEF705
:1025B0001FFA019033683B42B1D1FEF719FA019B33
:1025C000C01A6428F6D9032005B0F0BD1340834239
:1025D000AED08022236A206A19005202024322628E
:1025E000226A0F483140024022622162DB079FD5F8
:1025F000FEF7FEF907000222236A134298D1FEF784
:10260000F7F9084BC01B9842F5D9DCE700100240EF
:1026100000700040FFFCFFFFFFFFFFEFFFFFFCFF2C
:10262000FFFFFEFF881300000200030001203D327F
:10263000117881421CD1022111701B68DA680243B3
:10264000DA600E4A934209D08022D205934205D027
:102650000B4A934202D00B4A93420AD107219A684F
:1026600000200A40062A03D0012219680A431A6092
:1026700070471A6802431A600020F9E7002C0140F5
:102680000004004000400140204A10B50368904219
:1026900006D08024E405A04202D01D4CA0420CD1FB
:1026A0007024A3434C682343904212D08024E40555
:1026B000A0420ED0164CA0420BD0164CA04208D01F
:1026C000154CA04205D0154CA04202D0144CA0429B
:1026D00003D1144C1C40CB6823438024A3434C6992
:1026E000234303608B68C3620B688362904208D007
:1026F000094B984205D0094B984202D0084B9842AA
:1027000001D10B6903630123436110BD002C01401B
:10271000000400400020004000400140004401400F
:1027200000480140FFFCFFFF70B504000120002CB1
:1027300021D025003D352B78DAB2002B05D12300BE
:102740003C3320001A70FEF73BF802232B70206800
:10275000211DFFF799FF220001230020463213704C
:102760004534083A137053709370D37013715371DA
:10277000937123702B7070BD70B5040002223C343D
:10278000257803001000012D20D01D0070263D3556
:102790002A701B6858689A68B0430E6830435860C6
:1027A0000B48834209D08020C005834205D00948E8
:1027B000834202D00848834204D180204968824382
:1027C0000A439A60012300202B70207070BDC04620
:1027D000002C01400004004000400140821D030025
:1027E0000020D087014A0233DA87704780BFFFFF9D
:1027F0000230C38F024A1340C38700207047C0468F
:102800007F40000084B010B50400049205930122BB
:10281000831C0020DA87D887A31D5034D887039102
:10282000208010BC08BC04B018470000F7B50E7833
:10283000794AB300C3181C88CF78144001220500E0
:102840000092032F08D83800FDF75EFC02423F3C9F
:102850008022920014430097704A1443A4B21C8053
:1028600018886F4C20403043104380B21880F0002D
:102870008446087BAC4450350195002800D068E0C0
:10288000CD8848786D086D00002823D080200199FC
:10289000C0000988614409180D801988490604D5CB
:1028A000198821405F4C214319805F4D012F00D1D1
:1028B000ABE020211C882C4061400A4392B2009872
:1028C0001A80FEBDC022D200144300220092C3E74A
:1028D0008022F8E7019809690788544867443F183F
:1028E00001983D800588524865442D182F88BF0502
:1028F000BF0D2F803E290DD91F204F090140080030
:10290000414241417F1A2988BF020F434949394357
:1029100089B205E0002915D1802729883F02394373
:1029200029801988490404D519882140424C214343
:10293000198042491C880C40C021002E00D0802103
:102940008901B9E701204F0801407F18BF0229889B
:10295000DDE71D88022F3AD1394E254035430198D5
:102960001D80058880200E896544C00076082D18DA
:10297000760001982E8005884E892C48654476089B
:102980002D1876002E804978274E8C46802160468F
:102990002A4DC90100281FD11F880F4204D0198871
:1029A000254F2140394319801988490604D51988D3
:1029B00021401C4C21431980C0211C8889012C40D6
:1029C0006140114389B219801988314075E71D4E65
:1029D00035401543ADB2C2E71888084204D01988C3
:1029E00015482140014319801988490604D51988E2
:1029F00021400C4C21431980012F09D020211C8833
:102A000034406140114389B219801988294054E744
:102A100019883140F6E7C0468F89FFFF8080FFFFAD
:102A20008F8FFFFFC0800000BF8FFFFF04040000F6
:102A3000060400000080FFFF80C000008FBFFFFF82
:102A4000808100008F8EFFFFF0B50B784A78097BFC
:102A50009B00C018314B00291AD1002A0CD00288E3
:102A6000520605D502882E490A402E490A430280A3
:102A700002882D490A402FE00288520405D50288B9
:102A800027490A4029490A43028002882849F1E778
:102A90008027234E244D2649FF01002A21D1028898
:102AA0003A4204D00288214C3240224302800288FC
:102AB000204C520604D502883240224392B2028052
:102AC000028832401443A4B2048002880A401A43A8
:102AD00092B2028002882A4013439BB203800020F6
:102AE000F0BD0288144C3A4204D00288324022439E
:102AF00092B202800288520604D50288094F324001
:102B00003A430280028832401443A4B2048002880F
:102B10002A401A4392B202800288ABE78080FFFF0E
:102B20008F8FFFFFC0800000BF8FFFFF80C00000BD
:102B30008FBFFFFFC080FFFF80C0FFFF0B780C4AF4
:102B40009B00C0184B780188002B08D0094B194016
:102B500010234B4013439BB2038000207047064B69
:102B6000194080235B014B401A4392B20280F4E784
:102B70008080FFFFBF8FFFFF8FBFFFFF0B7B002B0E
:102B800019D10B789B00C0184B78002B15D0038807
:102B90005B0605D50388104A1340104A134303808F
:102BA000CB78012B07D00E4B02881A4020235340CC
:102BB0000C4A134303800020704703885B0405D54B
:102BC0000388054A1340084A13430380074B0288D1
:102BD0001A40C0239B01EAE78F8FFFFFC0800000EF
:102BE000BF8FFFFF8080000080C000008FBFFFFF0D
:102BF000002902D180234C300380002070478022BE
:102C000058300388120213430380002070470630B7
:102C1000C08F80B2704730B580240133E4001219B0
:102C20005B0880185B00CB18401A44188B4200D117
:102C300030BD4A780D7812022A4322800231F4E72F
:102C4000F0B54A7805000C000B7B87B0012A00D054
:102C50001BE10A698F690292974200D917002A0086
:102C6000503261690192002B1DD1BFB23B00E28856
:102C70002800FFF7D0FF019BB54A19882378AA18CE
:102C8000DB0052189B181F802378B24A9B00EB1878
:102C90001988114030224A40AF490A4392B20020BD
:102CA0001A8007B0F0BD2278E0789300D200266A3F
:102CB000EB180392022800D0D1E0029AB24200D36E
:102CC000BBE01A88A548F61B1040A54A104318809F
:102CD0001B8840209C466246024005926246CB1902
:102CE00004932662BBB2024255D0019A12889446E0
:102CF0009C4AA818039A60448218138062892800AD
:102D0000FFF789FF049B029A63610023B24201D25C
:102D1000F31B3E0062782362B3B2002A2ED1019ADF
:102D20008B491088227869180918D2005218118826
:102D30008905890D11803E2E0CD91F203040710964
:102D400046427041091A10888902084386490143A6
:102D500089B205E0002E0AD18020118800020143CB
:102D60001180228904992800FFF755FF8CE7012183
:102D700070083140401880021188E8E7012AF0D13C
:102D80002A0073495032108822786918D200091835
:102D900052181380E5E7019A128894466C4AA818E5
:102DA000039A60448218138022892800FFF733FFBA
:102DB000049B029A6361059BB24201D2F31B3E0061
:102DC00062782362B3B2002A2AD1019A6549108839
:102DD000227869180918D200521811888905890DBE
:102DE00011803E2E0CD91F2030407109464270419F
:102DF000091A1088890208435B49014389B205E03A
:102E0000002E06D1802011880002014311806289C2
:102E1000A8E7012170080E40801911888002ECE7B4
:102E2000012AF4D12A004F495032108822786918BB
:102E3000D200091852181380E9E718884B4F464A08
:102E40003840104380B21880019B039A1888404B89
:102E5000EB181B189A18B3B21380228983E71888DD
:102E6000F61B019A26621688BBB2400607D53D4A7A
:102E7000A818039A801982181380628973E7344A6C
:102E8000A818039A80198218E6E7002B3CD18A69BA
:102E900009698A4201D9531A0A00A3612B003149FA
:102EA00050331888237869180918DB005B181988D3
:102EB0008905890D19803E2A18D91F205109024021
:102EC00050424241891A1A8889021143264A0A430C
:102ED00092B21A802378264A9B00EB181988114079
:102EE000C02292014A4023490A43D8E6002A04D16D
:102EF00080211A8809020A43EBE7012051080240A9
:102F0000891889021A88E2E7CB78022B00D07CE08E
:102F1000002A4CD106000E4B503631882278C31857
:102F20005B18D200D21813889B059B0D1380236970
:102F30003E2B21D91F201840474278415909091AD0
:102F40001088890208430849014389B21AE0C04643
:102F500002040000BF8FFFFF8080FFFF8F8FFFFF05
:102F600080810000060400000080FFFF8F8EFFFFBD
:102F70008FBFFFFF80800000002B2BD180201188A5
:102F800000020143118052493088227869180918DB
:102F9000D200521811888905890D11803E2B20D846
:102FA000002B2BD18021138809020B431380E36986
:102FB000002B8FD0237847499B00EB181A880A40D2
:102FC0008A4202D0002A00D084E743491A880A4086
:102FD000424990E7012158081940401880021188A1
:102FE000B2E71F205909034058424341C91A1388C8
:102FF000890219433A4B0B439BB2D7E7012059088A
:103000000340C91889021388F5E70120834200D0E4
:1030100047E68B69096900208B4201D9581A0B00D9
:10302000A061002A00D055E72E002E495036308886
:10303000227869180918D200521811888905890D5B
:1030400011803E2B0CD91F20184047427841590966
:10305000091A1088890208432149014389B205E011
:10306000002B19D1802011880002014311801849DA
:103070003088227869180918D200521811888905F9
:10308000890D11803E2B0ED8002B19D18021138879
:1030900009020B4313801DE701215808194040180D
:1030A00080021188D9E71F20590903405842434143
:1030B000C91A138889021943094B0B439BB2E9E7EC
:1030C000012059080340C91889021388F5E7C04652
:1030D00006040000404000008F8FFFFFC08000000A
:1030E0000080FFFF02040000F0B580255C08ED00C1
:1030F000521926000D008018471A7A19002E07D1A0
:10310000640000190919DB0701D503880B70F0BDB5
:103110001288013E92B22A70120A6A700235ECE7F8
:10312000292303800048704788000020AE239B00BD
:10313000C3580020187370470A2303800048704763
:10314000C000002010B5B0240123A4001900034AD8
:103150000059FEF7EFFD002010BDC046AC0700206F
:10316000F7B5AE22920086586A4603000878971D8C
:10317000002204003A806032144010421ED0202CFD
:1031800034D148780238092830D8FCF7BDFF140A3A
:103190002F2F2F2F2F2F10058B7833600024200026
:1031A000FEBD01223100180000F050FCF6E74B880C
:1031B0001B0A7360F2E70122311DF4E74D780B2DF5
:1031C00014D82800FCF7A0FF0612121212121712D0
:1031D00012123039A72292009A5C032A06D13900D4
:1031E0001800013A00F032FC2C00D8E7180000F07B
:1031F00005FC0224D3E74A88120A222A0AD1C98888
:103200000A1C412900D94122104992B2180000F04D
:103210001DFCC4E7212AE9D1C9880A1C092900D963
:1032200009220B4992B2F1E7A72292009A5C032A85
:10323000DCD13100023A0831E8E7A72292009A5C1B
:10324000032AD3D18B78B360A9E7C0460C000020D5
:10325000B400002070B5AE25040000268121AD0029
:1032600000F095FD6059E662B04202D000F0DEFD4C
:103270006651002070BD000070B508230322812133
:10328000040000F078FD012301251900032220002D
:1032900000F071FDAE261020E56200F0C3FDB6001F
:1032A0002B00A05129002000044A00F0B2FDA359D0
:1032B0000220002B01D00020187370BDAC07002045
:1032C00029230380004870478800002029230380B9
:1032D00000487047880000201300A72210B5920014
:1032E000825C032A0BD1AE2292008258147B002C00
:1032F00005D1013414730A00812100F081FD002002
:1033000010BD022310B5002813D0AD239B00C45874
:10331000002C01D00024C450002902D0AC239B0013
:10332000C150A72301219B00C154027000F0E6FCAC
:103330000023180010BD03000220002903D0AD2295
:10334000002092009950704710B500F00BFD00204E
:1033500010BDAD239B00C25810B50223002A04D033
:1033600013689847431E98414300180010BDAD23D1
:1033700010B59B00C3585B689847002010BD000043
:10338000AA239B0070B5C5180400280000F022FB9A
:10339000A52301229B00E250114BE25A163BE2505A
:1033A0001033E15C1F230B40012B09D0022B0CD002
:1033B000002B0FD12900200000F01EF9002070BD65
:1033C0002900200000F04EFAF8E72900200000F064
:1033D00071FAF3E77F232000994300F0E1FCEDE769
:1033E000AE02000070B50D0004001100002D2ED1BA
:1033F000A5239B00C258032A22D102005532FF3276
:10340000D368106983420AD91B1AD36082B29842EA
:1034100000D99AB2200000F02FFB280070BDAD2328
:103420009B00E3581B69002B06D0A7229200A25CE8
:10343000032A01D120009847200000F025FBECE78B
:10344000052AEAD12900C55000F0AAFCE5E7AD2322
:103450009B00C3589B69002B08D0A7229200825C76
:10346000032A03D1290098470025D6E70225D4E78F
:10347000F8B50D0004001100002D4DD1A5239B00CF
:10348000C358022B41D1036A466AB34213D99B1B2E
:1034900003629AB200F0E8FA2B002A00290020000B
:1034A00000F0B7FCA8239B00E25C012A01D10022B6
:1034B000E2542800F8BDC76931003800FCF7BEFEB1
:1034C00000290DD1BE420BD8A626B600A3599F42B3
:1034D00006D22A002900200000F0C6FAA551DBE739
:1034E000AD239B00E358DB68002B06D0A722920097
:1034F000A25C032A01D1200098478021200000F01F
:103500004FFC200000F0CCFACCE704229343C9D151
:10351000802100F045FCC5E7AD239B00C3585B69E3
:10352000002B08D0A7229200825C032A03D1290035
:1035300098470025BDE70225BBE7002270B50400CF
:103540001100402300F017FC230001254026FC3326
:103550008021DD659E6600223300200000F00BFC18
:10356000A72300219B00A5616662E554083BE1505A
:1035700010336160E1501433E3588B4205D0AD2322
:103580009B00E35820005B689847002070BD0174E1
:1035900000207047A7239B00C15C034A815404228A
:1035A000C25400207047C0469D020000A7239B0024
:1035B000C25C042A02D1024A825CC25400207047D5
:1035C0009D020000A72310B59B00C35C032B06D10E
:1035D000AD239B00C358DB69002B00D09847002027
:1035E00010BD10B50400802100F0DAFB002120009E
:1035F00000F0D6FB10BD000060220B7873B51340BD
:103600000D001900921820390400114212D0002B2D
:1036100000D096E06878092800D992E0FCF77EFD9A
:10362000F0000D019100050191008300120091004E
:10363000DA00A400AD239B00C35829009B6898477B
:10364000002076BD00236A46D3806B88180A0138B3
:10365000062876D8FCF758FD0417267575404B00F0
:10366000AC239B00E358207C1B686A46911D984759
:103670006B46D988EA88002950D0002A43D120001F
:1036800000F002FADCE7AD23227C9B00E358002A1D
:1036900006D19B6A6A46901D984702234370E7E76C
:1036A000DB6AF7E7D8B205284BD8AC239B00E35878
:1036B000FCF72AFD03080A0C0E105B68002B40D0B3
:1036C000207CD2E79B68F9E7DB68F7E71B69F5E741
:1036D0005B69F3E79B69F1E7237C002B31D1AD23D4
:1036E0006A469B00E358901D5B6B9847C0E7237CBC
:1036F000002B26D1AD236A469B00E358901D1B6B1F
:1037000098470723CAE70B1C914200D9131C69464E
:103710009AB2CB800100200000F098F9EB88002BD2
:1037200000D08DE7ABE7AB88002B0AD1EB88002BEC
:1037300007D16E887F2E04D8A725AD00635D032BCB
:1037400003D12000FFF74DFF7AE7444BF1B2E1547B
:10375000200000F04CFB200000F096F90223002E20
:1037600000D1012363556BE7A9783D4D29700129EC
:10377000E7D8A7239B00E25C022A09D0032A15D0D0
:103780002000FFF72EFF20002978FFF7F0FD57E714
:10379000002900D173E7012103226160E254200077
:1037A000FFF7D7FD022800D069E7CAE7002906D154
:1037B00002222000E2546160FFF7D9FD5FE76168F3
:1037C000012900D15BE7C9B22000FFF7D0FD2978BD
:1037D0006160E4E7EA88012AB3D1A7239B00E35C98
:1037E000022B06D8002BACD000232100A3600831A7
:1037F00002E0211D032BA4D1200000F027F91FE7D0
:10380000A7239B00E35C013B022B9AD8EB88022B99
:1038100097D1A9239B00E2580323002A00D1023B41
:1038200021000222E3600C31E6E76B88012B00D017
:1038300006E7A9229200A35021E7A7239B00E35C9F
:10384000013B022B00D97CE76B88012B00D0F7E607
:10385000A92300229B00E25011E7C0469E0200000F
:10386000FC09002060220B7870B51A4004000D009E
:10387000402A01D05B0619D4A7239B00E35C013BDF
:10388000022B13D82B79012B10D8AD239B00E358C2
:1038900029009B6820009847EB88002B04D1002862
:1038A00002D1200000F0F0F8002070BD2000FFF7EA
:1038B00098FEF9E770B50A7804000B00888860214B
:1038C0000A4015004918203D0D422BD0002A39D15D
:1038D0005A78C1B2012A48D0032A2CD0002A31D10B
:1038E000A7239B00E35C022B59D0032B2AD10F2383
:1038F00014220B405343E318000660D59B69002B4C
:1039000020D07F230B4001335343E51800204B06A2
:1039100004D0200000F056FA431E984102222900EC
:10392000286048E0AD229200A25819002000926859
:103930009047002070BDA7229200A25C022A24D0EA
:10394000032A03D02000FFF74CFEF2E75A88002A32
:1039500007D14A0605D0DB88002B02D1200000F0F9
:103960001FFA200000F090F8E3E7A7229200A25C83
:10397000022A0AD0032AE5D15B88002BD9D14B0655
:10398000EFD0200000F015FAEBE74B06DAD020006C
:1039900000F006FA8021200000F002FAC9E749068B
:1039A000D0D121005531FF31000601D54139FF3911
:1039B000002302220B60200000F048F8B9E7FC3336
:1039C000DB6D002BBED07F230B405A435532FF32B4
:1039D000A5189BE70B7803704B784370CA788B78F7
:1039E00012029B1843804A790B7912029B1883803C
:1039F000CA798B7912029B18C380704710B50400F6
:103A0000802100F0CDF90021200000F0C9F910BD9F
:103A100070B50025461EA8420FD02B000135745DFD
:103A2000002CFAD1DBB201335B0013800B7003234F
:103A30004B70013B0578002D00D170BD5A1CCD5450
:103A4000D2B202330130DBB28C54F3E71300A5226B
:103A500010B50224920084500A00C3610021036261
:103A600000F0CEF9002010BD10B513000A000021AF
:103A700000F0C6F9002010BD10B513000A000021A7
:103A800000F0C7F9002010BDA52304229B0010B54B
:103A9000C25000231A00190000F0B2F9002010BD36
:103AA000A52305229B0010B5C25000231A0019005F
:103AB00000F0AFF9002010BD10B50D4C0022200021
:103AC0000C49FFF71EFC002801D0FCF72BFE20005C
:103AD0000949FFF730FC002801D0FCF723FE200045
:103AE000FFF732FC002801D0FCF71CFE10BDC046D9
:103AF000000A0020CC0000205000002012230148C2
:103B00000B807047E8000020042301480B807047B9
:103B1000FC0000200023F0B51F00060FF5B22C00BA
:103B20003734092E00D8073C0133DBB20C704F70DC
:103B3000000102319A42F0D1F0BD00001A2370B5A5
:103B40000B800B4B0B4C18680B4B1B68C0180028E4
:103B50000BD00A4B0822A11C1D68FFF7DBFF2100D8
:103B6000042228001231FFF7D5FF200070BDC046A7
:103B7000ACF7FF1F00010020B4F7FF1FB0F7FF1FD5
:103B800010B5044C0A0021000348FFF741FF200054
:103B900010BDC046C40C00209C43000810B5044C66
:103BA0000A0021000348FFF733FF200010BDC04684
:103BB000C40C0020A143000810B5044C0A002100E9
:103BC0000348FFF725FF200010BDC046C40C0020AD
:103BD000B443000810B5044C0A0021000348FFF765
:103BE00017FF200010BDC046C40C0020BF430008D2
:103BF00003000220032B01D8014AD05C7047C04665
:103C0000CD43000807B50B4B02689A4211D18021C1
:103C1000094B0904DA691F200A43DA610022DB69D3
:103C20000B4001931100019BFCF7FAFE1F20FCF7EB
:103C300021FF07BD005C004000100240AC2310B51E
:103C40009B00C1184033C058FFF79AFB10BD2823D2
:103C50004B43C3187D33FF331A68BC2310B59B0058
:103C6000C058FFF7BFFB10BD28234B43C318DA6BC6
:103C7000BC2310B59B00C058FFF7FAFB10BDBC2356
:103C800010B59B00C058FFF79DFC10BD836870B550
:103C90000400022B01D0FCF745FDBC25AD0001213D
:103CA0006059FFF774FC6059FFF747FC70BD0000D6
:103CB000BC2310B504009B00C058FFF76BFCA36940
:103CC000002B04D00623024A11690B43136110BD77
:103CD00000ED00E0836910B50400002B06D006213A
:103CE000054A13698B431361FCF7D8FBBC239B0087
:103CF000E058FFF75BFC10BD00ED00E0BC2370B5A1
:103D0000040016489B00C450154BB02503600823DF
:103D10004360063B836003610023AD006051836113
:103D2000C3610362FDF74EFA002801D0FCF7FAFCEC
:103D30000022605911001823FEF794F860595823A7
:103D400000228021FEF78EF8802360590022812115
:103D50005B00FEF787F8002070BDC046C40E00204F
:103D6000005C0040B02310B59B00C058FDF794FAEA
:103D7000FFF73EFF10BD10B514001A002300B02459
:103D8000A4000059FDF782FFFFF732FF10BDB023FA
:103D900010B59B00C058FDF7A6FFFFF729FF10BD27
:103DA000B02310B59B00C058FEF702F8FFF720FFC4
:103DB00010BDB02310B59B00C058FEF725F8FFF7E3
:103DC00017FF10BDB0234AB29B00C358002A07DA80
:103DD0007F2211400131573A4A439B189878704727
:103DE00028224A439B186B33FF331878F7E7B02338
:103DF00010B59B00C058FDF762FAFFF7F9FE10BD41
:103E000010B5B024A4000059FDF7B5FFFFF7F0FE90
:103E100010BD10B5B024A4000059FDF78BFFFFF7CB
:103E2000E7FE10BD00487047B8110020704703003E
:103E30008218934200D1704719700133F9E70000EE
:103E400070B500260C4C0D4D641BA410A64209D180
:103E5000002600F019F80A4C0A4D641BA410A64273
:103E600005D170BDB300EB5898470136EEE7B300BB
:103E7000EB5898470136F2E7D4430008D4430008D2
:103E8000D8430008D4430008F8B5C046F8BC08BCC5
:103E90009E467047F8B5C046F8BC08BC9E467047C1
:103EA000010000000600000000000000010000000A
:103EB0000000000001000000000000000100000000
:103EC00000000000010000000000000001000000F0
:103ED00000000000010000000000000001000000E0
:103EE00000000000010000000000000001000000D0
:103EF00000000000010000000000000001000000C0
:103F000000000000010000000000000001000000AF
:103F1000000000000100000000000000010000009F
:103F2000000000000100000000000000010000008F
:103F3000000000000100000000000000060000007A
:103F4000000000000100000000000000010000006F
:103F5000000000000100000000000000010000005F
:103F6000000000000100000000000000010000004F
:103F7000000000000100000000000000010000003F
:103F8000000000000100000000000000010000002F
:103F9000000000000100000000000000010000001F
:103FA000000000000100000000000000010000000F
:103FB00000000000010000000000000001000000FF
:103FC00000000000010000000000000001000000EF
:103FD00000000000060000000000000001000000DA
:103FE00000000000010000000000000001000000CF
:103FF00000000000010000000000000001000000BF
:1040000000000000010000000000000001000000AE
:10401000000000000100000000000000010000009E
:10402000000000000100000000000000010000008E
:10403000000000000100000000000000010000007E
:10404000000000000100000000000000010000006E
:10405000000000000100000000000000010000005E
:104060000000000001000000000000000600000049
:10407000000000000100000000000000010000003E
:10408000000000000100000000000000010000002E
:10409000000000000100000000000000010000001E
:1040A000000000000100000000000000010000000E
:1040B00000000000010000000000000001000000FE
:1040C00000000000010000000000000001000000EE
:1040D00000000000010000000000000001000000DE
:1040E00000000000010000000000000001000000CE
:1040F00000000000010000000000000001000000BE
:1041000000000000060000000000000001000000A8
:10411000000000000100000000000000010000009D
:10412000000000000100000000000000010000008D
:10413000000000000100000000000000010000007D
:10414000000000000100000000000000010000006D
:10415000000000000100000000000000010000005D
:10416000000000000100000000000000010000004D
:10417000000000000100000000000000010000003D
:10418000000000000100000000000000010000002D
:104190000000000001000000000000000600000018
:1041A000000000000100000000000000010000000D
:1041B00000000000010000000000000001000000FD
:1041C00000000000010000000000000001000000ED
:1041D00000000000010000000000000001000000DD
:1041E00000000000010000000000000001000000CD
:1041F00000000000010000000000000001000000BD
:1042000000000000010000000000000001000000AC
:10421000000000000100000000000000010000009C
:10422000000000000100000000000000010000008C
:1042300029003A3B3C3D3E3F4041424344454A0011
:10424000000000351E1F20212223242526272D2E85
:104250002A49535455562B141A0815171C180C12BA
:10426000132F30314C5F60615739041607090A0B70
:104270000D0E0F33342800005C5D5E00E11D1B064F
:1042800019051110363738E5000052595A5B58E0CD
:1042900066E200002C000000E665E40050514F6229
:1042A0006300000000000048000200000000004819
:1042B00000010000000400480080000000040048E5
:1042C000004000000004004800080000000400480E
:1042D000000400000004004804000000000400483E
:1042E0000200000000040048002000000004004814
:1042F00000100000000400484000000000040048D6
:1043000020000000000400481000000000040048E5
:10431000080000000004004880000000001400486D
:10432000010000000008004800800000000800486C
:104330000040000000080048002000000000004885
:1043400001000000000000480400000000000048D8
:104350000800000000000048800000000000004845
:1043600020000000000000484000000000000000A5
:104370000000000001020304060708090203040507
:10438000060708090A0B0C0D0E0F1010010203049A
:1043900005060708090A0B0C0D0E0F104154415475
:1043A00000415441545F31383030204B6579626FA1
:1043B0006172640048494420436F6E666967004833
:1043C000494420496E7465726661636500000201AC
:0443D00002000000E7
:0443D400E9000008F4
:0443D800C100000818
:1043DC0000127A000100000004000000050109062B
:1043EC00A101050719E029E71500250175019508BC
:1043FC008102750895018101190029651500256553
:10440C007508950681000508190129031500250179
:10441C00750195039102750595019103C00000008B
:10442C0079320008553200086131000800000000A4
:10443C00000000002D31000845310008000000008C
:10444C000000000000000000CD32000821310008FF
:10445C00C13200083931000809022900010100E0CD
:10446C00320904000002030101000921110121019C
:10447C002241000705810308000A0705010301001A
:10448C000A00000009211101000122410000000076
:10449C000A0600020000004001000000FD3A00087E
:1044AC00093B0008813B00089D3B00083D3B000890
:1044BC00B93B0008D53B0008120100020000004087
:1044CC0083042B57000201020301000004030904BA
:1044DC001A030000000000000000000000000000B3
:0C44EC00000000000000000000000000C4
:040000050800091DC9
:00000001FF
